:020000040800F2
:10000000105D0020D504000887020008890200085E
:100010008D0200089102000895020008000000000F
:10002000000000000000000000000000CD010008FA
:100030009902000800000000110200089B0200085D
:10004000EF040008EF040008EF040008EF040008C4
:10005000EF040008EF040008B7590008095A000827
:100060005D5A0008B15A0008055B0008EF0400085B
:10007000EF040008EF040008EF040008EF04000894
:10008000EF040008EF040008EF040008EF04000884
:10009000EF040008EF040008EF040008595B0008B3
:1000A000EF040008EF040008EF040008EF04000864
:1000B000EF040008EF040008EF040008EF04000854
:1000C000EF040008EF040008EF040008EF04000844
:1000D000EF040008EF040008EF040008EF04000834
:1000E000EF040008EF040008EF040008EF04000824
:1000F000EF040008EF040008EF040008EF04000814
:10010000EF040008EF040008EF040008EF04000803
:10011000EF040008EF040008EF040008EF040008F3
:10012000EF040008EF040008EF040008EF040008E3
:1001300000F002F800F03AF80AA090E8000C8244BF
:100140008344AAF10107DA4501D100F02FF8AFF29C
:10015000090EBAE80F0013F0010F18BFFB1A43F0A5
:10016000010318474865000068650000103A24BF85
:1001700078C878C1FAD8520724BF30C830C144BF0C
:1001800004680C607047000000230024002500264E
:10019000103A28BF78C1FBD8520728BF30C148BFEA
:1001A0000B6070471FB51FBD10B510BD06F0E1F91B
:1001B0001146FFF7F7FF00F054F806F0FFF903B41B
:1001C000FFF7F2FF03BC06F007FA0000224B1968A4
:1001D0000868B0E8F00F80F30988BFF36F8F4FF025
:1001E000000080F311884EF00D0E704700000000F3
:1001F00006480068006880F3088862B661B6BFF3FD
:100200004F8FBFF36F8F00DF00BF00BF08ED00E02E
:10021000EFF30980BFF36F8F0F4B1A6820E9F00FDF
:10022000106008B54FF0500080F31188BFF34F8F76
:10023000BFF36F8F03F020F84FF0000080F31188B8
:10024000BDE8084019680868B0E8F00F80F3098835
:10025000BFF36F8F704700BF28000020EFF30580C9
:10026000704708B54FF4407000F054F90020034681
:1002700002460146009004F041FF05F099FF03F0AB
:1002800052F900BFFEE7704700BFFEE700BFFEE780
:1002900000BFFEE700BFFEE7704710B503F05FFA4E
:1002A000012801D004F074F810BD000038B50446F0
:1002B0000020009000F0B6FE012000F038FF7B48DF
:1002C000006800F002000090009802282BD1102056
:1002D00000F030FA022000F019FA2146002000F068
:1002E00029FF002000F043FF4FF4806000F048FF3A
:1002F000002000F04EFF012000F028FF00BF392051
:1003000000F0D3FE0028FAD0022000F022FF00BF48
:1003100000F028FF0828FBD1654800F084FF6448FE
:1003200000686449086038BD0CB500200190009059
:100330005E48006840F480305C49086000BF5B485C
:10034000006800F4003000900198401C0190009873
:1003500018B90198B0F5A06FF1D15448006800F4C5
:10036000003010B10120009001E0002000900098C2
:10037000012828D15048006840F010004E4908601C
:100380000846006820F0030008600846006808601E
:100390004648406845494860084640684860084605
:1003A000406848600846406820F0030048600846FE
:1003B000406840F00100486000BF3C48406800F0E1
:1003C0000C000428F9D10CBD10B5FFF7ADFF10BD2E
:1003D00010B53648006840F001003449086008460E
:1003E0004068364908403149486008460068344949
:1003F00008402E4908600846006820F48020086004
:100400000846406820F4FE0048604FF41F008860F2
:10041000FFF7DAFF4FF000602A49086010BD10B501
:10042000002100200022214B5B6803F00C0121B168
:10043000042906D0082928D107E0234B1D4C23604E
:1004400027E0214B1B4C236023E0184B5B6803F42F
:100450007010164B5B6803F48032022303EB90406C
:1004600022B91A4B4343134C23600DE00F4B5B68DA
:1004700003F4003323B1154B43430E4C236003E0D8
:10048000114B43430B4C236003E00F4B094C23609B
:1004900000BF00BF054B5B68C3F303130C4CE15C6A
:1004A000044B1B68CB40034C236010BD001002407E
:1004B000B400002000000020002002400000FFF8EF
:1004C000FFFFF6FE08ED00E000127A0000093D0093
:1004D000040000200948804709480047FEE7FEE77E
:1004E000FEE7FEE7FEE7FEE7FEE7FEE7FEE7FEE7E4
:1004F00004480549054A064B70470000D10300082F
:100500003101000810570020105D00201059002014
:100510001059002031490143314A1160704770B5CC
:10052000002100230F22C47804B32D4C246804F466
:10053000E064C4F5E064210AC1F10403CA404478D0
:1005400004FA03F18478144021430901254C06780C
:10055000A155047804F01F050124AC4005786D1105
:10056000AD0005F1E025C5F8004109E0047804F08C
:100570001F050124AC401C4D0678761145F8264035
:1005800070BD1A4A0A400243154B1B1F1A60704780
:1005900039B1134A121D12680243114B1B1D1A6018
:1005A00006E00F4A121D126882430D4B1B1D1A6094
:1005B0007047042808D14FF0E021096941F0040197
:1005C0004FF0E022116107E04FF0E021096921F0CE
:1005D00004014FF0E0221161704700000000FA05AD
:1005E0000CED00E000E400E080E100E080FFFF1F90
:1005F000002044490860091D0860091D0860091DA4
:10060000086041483F4914310860704700213D4966
:100610008279002A3AD00A46126803689A430B4648
:100620001A600A1D126803689A430B1D1A6002794A
:1006300011440A6803681A430A60324A0832126891
:1006400003689A432F4B08331A601A1D1268036817
:100650009A432C4B0C331A604279102A0ED11A1F80
:10066000126803681A43274B08331A601A1D126870
:1006700003681A43234B0C331A600DE02149427979
:1006800011440A6803681A430A6005E002791144BC
:100690000A6803689A430A6070470021016001718B
:1006A0000C21417100218171704716491031096890
:1006B0000143144A10321160704701460020114A6C
:1006C000143212680A400AB1012000E0002070478D
:1006D0000C49143108607047014600200022094B84
:1006E0001B6803EA0102074B14331B680B4013B16C
:1006F0000AB1012000E0002070470249143108606F
:100700007047000000040140FFFF0F000146002079
:10071000FE4A106800F03800084310607047FB493B
:10072000096821F00801F94A11601146096801437E
:1007300011607047F549096821F01001F34A116012
:1007400011460968014311607047F148EF4948605C
:10075000F04848607047EE48EC494860ED48486012
:100760007047EA48006940F08000E8490861704736
:10077000E648006940F08000E449086170470420C1
:10078000E249C96801F0010109B101200EE0DF4929
:10079000C96801F0040109B1022007E0DB49C9681A
:1007A00001F0100109B1032000E00420704700B5FA
:1007B00002460423FFF7E3FF034603E0FFF7DFFFF2
:1007C0000346521E012B01D1002AF7D102B905239D
:1007D000184600BD30B5044604254FF43020FFF71D
:1007E000E6FF0546042D17D1C848006940F0020015
:1007F000C649086108464461006940F0400008614C
:100800004FF43020FFF7D3FF0546C048006941F69A
:10081000FD710840BD490861284630BD10B504246B
:100820004FF43020FFF7C3FF0446042C16D1B7481D
:10083000006940F00400B54908610846006940F0CD
:10084000400008614FF43020FFF7B1FF0446AF4885
:10085000006941F6FB710840AC490861204610BDB3
:1008600000B502460423FFF78AFF034603E0FFF7C3
:1008700086FF0346521E012B01D1002AF7D102B98F
:100880000523184600BD10B504244FF43020FFF7AF
:10089000E7FF0446042C16D19C48006940F0040090
:1008A0009A4908610846006940F0400008614FF429
:1008B0003020FFF7D5FF04469448006941F6FB71EC
:1008C000084092490861204610BD00208F49C9693F
:1008D00001F0020109B1012000E00020704730B5AD
:1008E000A5250424FFF7F1FF00B100254FF43020C7
:1008F000FFF75DFF0446042C3AD1854883498860A0
:10090000844888600846006940F020000861084675
:10091000006940F0400008614FF43020FFF747FFC6
:100920000446042C1BD17948006941F6DF71084068
:10093000764908610846006940F010000861764871
:100940000580E002FFF733FF0446052C10D06F4806
:10095000006941F6EF7108406C49086108E0052C18
:1009600006D06A48006941F6EF710840674908619E
:10097000204630BD78B506460C4604250020009080
:10098000E802FFF714FF0546042D24D15F480069F3
:1009900040F001005D4908613480E802FFF707FF7D
:1009A0000546042D10D1B01C0090200C0099088041
:1009B000E802FFF7FCFE05465448006941F6FE7167
:1009C00008405249086106E05048006941F6FE714E
:1009D00008404E490861284678BD70B504460D466A
:1009E0000426F002FFF7E3FE0646042E11D1474825
:1009F000006940F00100454908612580F002FFF7D9
:100A0000D6FE06464148006941F6FE7108403F495E
:100A10000861304670BD70B505460E460424E002FC
:100A2000FFF7C5FE0446042C17D1394837498860C2
:100A3000384888600846006940F0100008612E8040
:100A4000E002FFF7B4FE0446052C06D02F480069EB
:100A500041F6EF7108402D490861204670BD2DE92F
:100A6000F04304464FF6FF763746B046B1460425BC
:100A7000E443E6B2C4F30727C4F307484FEA146916
:100A8000E802FFF794FE0546042D49D120481F498E
:100A90008860204888600846006940F010000861BE
:100AA000FF2E06D01C4808300680E802FFF77FFEC4
:100AB0000546042D08D1FF2F06D017480A300780BD
:100AC000E802FFF774FE0546042D0AD1B8F1FF0FC6
:100AD00007D011480C30A0F80080E802FFF767FE4D
:100AE0000546042D0AD1B9F1FF0F07D00A480E3090
:100AF000A0F80090E802FFF75AFE0546052D0FD03A
:100B00000248006941F6EF71084007E0002002400A
:100B100023016745AB89EFCD00F8FF1F66490861E7
:100B20002846BDE8F08330B5054604244FF4302054
:100B3000FFF73DFE0446042C41D160485E498860C1
:100B40005F4888600846006940F020000861084658
:100B5000006940F0400008614FF43020FFF727FEA5
:100B60000446042C22D15448006941F6DF71084044
:100B7000514908610846006940F0100008611DB144
:100B800000205049088002E0A5204E4908804FF41B
:100B90003020FFF70CFE0446052C10D046480069B3
:100BA00041F6EF7108404449086108E0052C06D081
:100BB0004148006941F6DF7108403F49086120461D
:100BC00030BDF0B505460E46174604243B483A4969
:100BD00088603B488860E002FFF7E9FD0446042C8A
:100BE00019D13548006940F010003349086147F0D9
:100BF000F800304328433349891C0880E002FFF79E
:100C0000D6FD0446052C06D02B48006941F6EF714D
:100C10000840294908612046F0BD2748C06980087E
:100C200070472548006A704700202349096801F091
:100C3000200109B1012000E00020704729B11E4ABF
:100C4000126902431C4B1A6104E01B4A1269824379
:100C5000194B1A61704701460020012908D1164A34
:100C6000D26902F001020AB1012008E0002006E08A
:100C7000114AD2680A400AB1012000E00020704702
:100C80000D49C860704704200B49C96801F0010193
:100C900009B101200EE00849C96801F0040109B159
:100CA000022007E00449C96801F0100109B10320DE
:100CB00000E0042070470000002002402301674547
:100CC000AB89EFCD00F8FF1F10B50446CC48844235
:100CD00008D10121042000F02DFB0021042000F0A8
:100CE00029FB46E0C748844208D10121082000F0D2
:100CF00021FB0021082000F01DFB3AE0C24884429D
:100D000008D10121102000F015FB0021102000F077
:100D100011FB2EE0BD48844208D10121202000F0C3
:100D200009FB0021202000F005FB22E0B8488442A6
:100D300008D10121402000F0FDFA0021402000F000
:100D4000F9FA16E0B348844208D10121802000F06E
:100D5000F1FA0021802000F0EDFA0AE0AE4884426A
:100D600007D10121801500F0E5FA0021A01500F05F
:100D7000E1FA10BD10B50121084600F0DBFA0021B0
:100D8000012000F0D7FA10BD2DE9F0410246002500
:100D90000026002000230024002791F803C00CF057
:100DA0000F0591F803C00CF0100CBCF1000F03D03C
:100DB00091F802C04CEA050591F800C0BCF1000FA3
:100DC00031D0146800202BE04FF0010C0CFA00F336
:100DD000B1F800C00CEA03069E4220D183004FF018
:100DE0000F0C0CFA03F7BC4305FA03FC4CEA0404AD
:100DF00091F803C0BCF1280F06D14FF0010C0CFA9A
:100E000000FCC2F814C00AE091F803C0BCF1480F1E
:100E100005D14FF0010C0CFA00FCC2F810C0401CC8
:100E20000828D1D31460B1F800C0BCF1FF0F34DD45
:100E3000546800202EE000F1080C4FF0010808FA79
:100E40000CF3B1F800C00CEA03069E4221D18300E6
:100E50004FF00F0C0CFA03F7BC4305FA03FC4CEA05
:100E6000040491F803C0BCF1280F05D100F1080C6F
:100E700008FA0CF8C2F8148091F803C0BCF1480FCE
:100E800007D100F1080C4FF0010808FA0CF8C2F87D
:100E90001080401C0828CED35460BDE8F0814FF686
:100EA000FF710180022181700421C17070470246E8
:100EB000002093680B400BB1012000E00020704738
:100EC0000146886880B2704702460020D3680B4014
:100ED0000BB1012000E0002070470146C86880B2D5
:100EE000704701617047416170470AB1016100E0DC
:100EF00041617047C16070474FF480320A4382619C
:100F00008161826182698269704702460020434B99
:100F100018684FF68073184040EA021008433F4BB0
:100F2000186070473E49C8617047F0B50A46002313
:100F300000240021002500F00046B6F1004F02D148
:100F4000364EF16901E0354E7168C0F3034583B256
:100F500000F44016B6F5401F08D121F070612F4E05
:100F6000766826F070662D4F7E6012E000F48016E1
:100F7000B6F5801F06D1032606FA05F4A14341F019
:100F8000706106E0460D360103FA06F6B14341F002
:100F9000706122B1460D360103FA06F6314300F0C6
:100FA0000046B6F1004F02D11C4EF16101E01B4E2C
:100FB0007160F0BD30B500228B071C0F0F2303FAC0
:100FC00004F2164B08338C1053F824309343134C1F
:100FD00008348D1044F8253023468C1053F8243003
:100FE0008C07240F00FA04F423430C4C08348D10B2
:100FF00044F8253030BD0A49DC31086070470000F4
:1010000000080140000C01400010014000140140A4
:1010100000180140001C0140002001400000014078
:1010200000002042DF48006840F00100DD49086010
:1010300008464068DC490840DA49486008460068CC
:10104000DA490840D74908600846006820F4802043
:1010500008600846406820F4FE0048604FF41F0016
:1010600088607047CF49096821F48031CD4A11600A
:101070001146096821F480211160B0F5803F03D04A
:10108000B0F5802F0ED106E0C649096841F48031E1
:10109000C44A116007E0C349096841F4A021C14A6C
:1010A000116000E000BF00BF704710B5014600228C
:1010B000002300204A11012A02D1BA4C236806E01D
:1010C000022A02D1B74C236A01E0B64C636A01F0F0
:1010D0001F02012494401C400CB1012000E00020BC
:1010E00010BD38B5002000900024002500BF31203D
:1010F000FFF7DBFF05460098401C00900098B0F514
:10110000A06F01D0002DF2D03120FFF7CEFF08B143
:10111000012400E00024204638BD01460020A14AF9
:10112000106820F0F80040EAC10010607047A04944
:1011300008607047024600209A4B586820F47C10E3
:1011400042EA01031843974B586070479849086674
:10115000704701460020934A506820F0030008437E
:10116000506070478F48406800F00C00704701469F
:1011700000208C4A506820F0F0000843506070470F
:1011800001460020874A506820F4E0600843506020
:10119000704701460020834A506820F4605040EABE
:1011A000C1005060704729B17E4A527A02437D4B9C
:1011B0005A7204E07B4A527A82437A4B5A727047E1
:1011C0007B49D8310860704701460020754A506855
:1011D00020F440400843506070470021714A20329B
:1011E0001170704A82F82010012802D004280AD118
:1011F00004E001216B4A2032117005E00521694AA3
:101200002032117000E000BF00BF704769490860DC
:1012100070476449096A0143624A1162704765492F
:1012200044390860704730B50021002200240023B3
:101230005C4D6D6805F00C0121B1042905D0082929
:1012400023D105E05C4D056022E05B4D05601FE0A9
:10125000544D6D6805F47012524D6D6805F480347C
:10126000022505EB92421CB9544D554305600BE035
:101270004C4D6D6805F400351DB1504D554305606A
:1012800002E04D4D5543056002E04B4D056000BF47
:1012900000BF444D6D6805F0F0010909484D6B5CD5
:1012A0000568DD4045603F4D6D6805F4E061090A61
:1012B000434D6B5C4568DD4085603A4D6D6805F4D3
:1012C0006051C90A3E4D6B5C4568DD40C560354DD7
:1012D0006D6805F44041890B3A4D6B5CC568B5FB00
:1012E000F3F5056130BD29B12E4A526902432D4BF9
:1012F0005A6104E02B4A526982432A4B5A61704773
:1013000029B1284A92690243264B9A6104E0254A92
:1013100092698243234B9A61704729B1214AD2696D
:101320000243204BDA6104E01E4AD26982431D4B1E
:10133000DA61704729B11B4AD2680243194BDA605F
:1013400004E0184AD2688243164BDA60704729B12C
:10135000144A12690243134B1A6104E0114A1269DC
:101360008243104B1A617047124940390860704738
:101370000F49C86470470B49C87170470948406AF3
:1013800040F0807007494862704701460020054AD6
:1013900092680A400AB1012000E00020704701492C
:1013A00088727047001002400000FFF8FFFFF6FE51
:1013B000000042428004424200127A0000093D00CF
:1013C000140000202400002010B50446FE4884428A
:1013D00008D10121C014FFF7ADFF0021E014FFF791
:1013E000A9FFC4E0B4F1804F08D101210846FFF7FE
:1013F000AEFF00210120FFF7AAFFB8E0F3488442C6
:1014000008D101210220FFF7A2FF00210220FFF7EF
:101410009EFFACE0EE48844208D101210420FFF792
:1014200096FF00210420FFF792FFA0E0E9488442E4
:1014300008D101210820FFF78AFF00210820FFF7CB
:1014400086FF94E0E448844208D101211020FFF790
:101450007EFF00211020FFF77AFF88E0DF488442FA
:1014600008D101212020FFF772FF00212020FFF783
:101470006EFF7CE0DA48844208D101214014FFF776
:1014800059FF00216014FFF755FF70E0D5488442F2
:1014900009D10121C804FFF74DFF00214FF40020BE
:1014A000FFF748FF63E0D048844209D101210805D5
:1014B000FFF740FF00214FF48010FFF73BFF56E09D
:1014C000CA48844209D101214805FFF733FF0021B2
:1014D0004FF40010FFF72EFF49E0C548844208D1C1
:1014E00001214020FFF733FF00214020FFF72FFFAD
:1014F0003DE0C048844208D101218020FFF727FF4A
:1015000000218020FFF723FF31E0BB48844208D14F
:1015100001218015FFF71BFF0021A015FFF717FF22
:1015200025E0B648844209D101210804FFF702FFF3
:1015300000214FF48030FFF7FDFE18E0B0488442F0
:1015400009D101214804FFF7F5FE00214FF40030D6
:10155000FFF7F0FE0BE0AB48844208D1012188047C
:10156000FFF7E8FE00214FF48020FFF7E3FE10BDF7
:1015700000220288944B98420ED0994B98420BD08F
:10158000B0F1804F08D0914B984205D0904B9842D3
:1015900002D0904B984204D14FF68F731A404B887B
:1015A0001A438D4B984207D08C4B984204D04FF68B
:1015B000FF431A40CB881A4302808B8883850B88AF
:1015C0000385814B98420BD0854B984208D08B4BBA
:1015D000984205D08A4B984202D08A4B984201D15A
:1015E0000B7A038601238382704770B500240022A2
:1015F0000023058C4FF6FE7635400584028C8388E7
:10160000048B4FF68F752C40B51E2C400D882C4353
:10161000751E2A400D892A434D882A436A4DA842E7
:101620000BD06F4DA84208D0744DA84205D0744D20
:10163000A84202D0734DA84213D14FF6F7752A4045
:101640004D892A434FF6FB752A408D882A434FF671
:10165000FF652B404FF6FF552B408D892B43CD89DD
:101660002B4383800483CD888586028470BD70B54A
:10167000002400220023058C4FF6EF7635400584C8
:10168000028C8388048B48F6FF752C404FF6FF458B
:101690002C400D884FF6FF7606EA05252C434FF6C1
:1016A000DF752A400D8906EA05152A434D8806EAAA
:1016B00005152A43444DA84202D0494DA8421DD1E8
:1016C0004FF67F752A404D894FF6FF7606EA0515DD
:1016D0002A434FF6BF752A408D8806EA05152A432E
:1016E0004FF6FF352B404FF2FF752B408D8906EAF0
:1016F00085052B43CD8906EA85052B43838004832A
:10170000CD880587028470BD70B5002400220023B7
:10171000058C4FF6FF6635400584028C8388848BE8
:101720004FF68F752C404FF6FC752C400D882C43DE
:101730004FF6FF552A400D894FF6FF7606EA05253C
:101740002A434D8806EA05252A431F4DA84202D0A8
:10175000234DA8421DD14FF2FF752A404D894FF607
:10176000FF7606EA05252A434FF6FF352A408D8885
:1017700006EA05252A434EF6FF752B404DF6FF7508
:101780002B408D8906EA05152B43CD8906EA051500
:101790002B4383808483CD888587028470BD70B598
:1017A000002200230024058C4EF6FF763540058488
:1017B000038C8488828B48F6FF752A404FF6FF45DC
:1017C0002A400D8820E00000002C01400004004069
:1017D00000080040000C00400010004000140040D1
:1017E00000340140004C01400050014000540140D1
:1017F00000180040001C0040002000400040014054
:1018000000440140004801404FF6FF7606EA0525F6
:101810002A434DF6FF752B400D8906EA05352B430B
:101820004D8806EA05352B43FA4DA84202D0FA4D01
:10183000A84208D14BF6FF752C408D894FF6FF76F4
:1018400006EA85152C4384808283CD88A0F8405019
:10185000038470BD828B4FF2FF331A408283828BE8
:101860004FF6FF7303EA01231A4382837047F0B5F2
:101870000C461546002200210026078C4EF6FF7C00
:1018800007EA0C070784828B018C4FF6FF7707EA83
:10189000043640F6FF473A404FF6FF7707EA052740
:1018A0003A434FF6FF7707EA03373A43D94FB84236
:1018B0000ED0D94FB8420BD0B0F1804F08D0D74FDF
:1018C000B84205D0D64FB84202D0D64FB84206D162
:1018D0004DF6FF77394046F48057394305E047F627
:1018E000FF57394044F48057394382830184F0BD67
:1018F000828B4FF6F3731A408283828B0A43828372
:101900007047F0B50C461546002200210026078CD2
:101910004FF6FF6C07EA0C070784828B018C4FF6A9
:10192000FF7707EA04264FF60C773A404FF6FF7729
:1019300007EA03172F433A43B64FB8420ED0B64FCB
:10194000B8420BD0B0F1804F08D0B44FB84205D0A8
:10195000B34FB84202D0B34FB84206D14FF6FF574B
:10196000394046F48077394305E04FF2FF5739405C
:1019700044F48077394382830184F0BD028B4FF2B7
:10198000FF331A400283028B4FF6FF7303EA0123F1
:101990001A4302837047F0B50C4615460022002119
:1019A0000026078C4FF6EF7C07EA0C070784028BB2
:1019B000018C4FF6FF7707EA041640F6FF473A40DE
:1019C0004FF6FF7707EA03373A434FF6FF7707EA08
:1019D00005273A438F4FB8420ED08F4FB8420BD0F5
:1019E000B0F1804F08D08D4FB84205D08C4FB8422F
:1019F00002D08C4FB84206D14FF6DF77394046F01F
:101A00001007394305E04FF65F77394044F010077F
:101A1000394302830184F0BD028B4FF6F3731A4001
:101A20000283028B0A4302837047F0B50C461546C9
:101A300000220021068C4FF6FE773E400684028B82
:101A4000018C4FF60C7632407E1C06EA03162E43BC
:101A50003243704EB0420ED06F4EB0420BD0B0F158
:101A6000804F08D06D4EB04205D06D4EB04202D0CE
:101A70006C4EB04206D14FF6FD76314044F001067F
:101A8000314305E04FF6F576314044F0010631432D
:101A900002830184F0BD70B505460C465D48854261
:101AA0000ED05D4885420BD0B5F1804F08D05B4821
:101AB000854205D05A48854202D05A48854200D115
:101AC00000E000BF208850B92389A2886188284699
:101AD000FFF7ABFFE1882846FFF79EFF25E020884F
:101AE00004280AD12389A28861882846FFF753FF7A
:101AF000E1882846FFF742FF17E0208808280AD12E
:101B00002389A28861882846FFF7FBFEE1882846E2
:101B1000FFF7EEFE09E02389A28861882846FFF7D7
:101B2000A6FEE1882846FFF795FE70BD2DE9F0413D
:101B300005460C4600260127608808B9022600E009
:101B40000026A088012801D1022700E00127208873
:101B5000A0B92389A28861882846FFF766FFE1883B
:101B60002846FFF759FF23893A4631462846FFF7B2
:101B700012FFE1882846FFF701FF13E02389A288BE
:101B800061882846FFF707FFE1882846FFF7F6FE41
:101B900023893A4631462846FFF747FFE188284621
:101BA000FFF73AFFBDE8F0810A884B881A438B881B
:101BB0001A43CB881A430B891A434B891A438B89E2
:101BC0001A43A0F8442070474FF6FF71818000212E
:101BD0000180C180418001727047002101804180F5
:101BE0008180C180018141818181C1817047002153
:101BF00001804180012181800021C18001817047E5
:101C00000021018041808180C180018141818181E9
:101C100070470000002C01400034014000040040E7
:101C200000080040000C004021B1028842F001028F
:101C3000028004E002884FF6FE731A40028070476B
:101C400031B1B0F8442042F40042A0F8442005E04D
:101C5000B0F84420C2F30E02A0F8442070471AB135
:101C600083890B43838102E083898B43838170479F
:101C70008182704741EA0203A0F8483070471AB1E8
:101C800083890B43838102E083898B43838170477F
:101C900001894FF6F8721140018170470A46002110
:101CA00001894FF68F73194011430181704730B598
:101CB00004460D4629462046FFF7F0FF208940F0F4
:101CC0000700208130BD2DE9F04104460D4616463F
:101CD0001F46602D06D13B46012231462046FFF7C4
:101CE0005AFE05E03B46012231462046FFF79DFEA5
:101CF00029462046FFF7D2FF208940F007002081C7
:101D0000BDE8F08130B50C4600210189C9B24FF61B
:101D1000FF7505EA0325154325432943018130BD9D
:101D20002DE9F04105460E461746984600244346E5
:101D30003A4631462846FFF7E5FF2C894FF6F87002
:101D4000044044F007044FF68F70044044F07004E0
:101D50002C81BDE8F081F0B504460D4616461F46BD
:101D60003B46324629462046FFF7CCFF208940F407
:101D700080402081F0BD0185828270470A460021A3
:101D800001884FF68F731940114301807047F0B5F9
:101D90000C4615461E460021002200230189028BB5
:101DA000038C4FF6F877394021434FF6FC473A4011
:101DB00040F201173A434FF6DD773B404FF6FF778D
:101DC00007EA06172F433B43018102830384F0BDDA
:101DD0000A460021018B4FF68F731940114301838E
:101DE00070470A460021018B48F6FF7319404FF6F1
:101DF000FF7303EA02231943018370470A46002157
:101E0000818B4FF68F7319401143818370470A46C7
:101E10000021818B48F6FF7319404FF6FF7303EAE8
:101E2000022319438183704721B1028842F0800266
:101E3000028004E002884FF67F731A4002807047E8
:101E400021B1828842F00402828004E082884FF649
:101E5000FB731A408280704721B1828842F00802E9
:101E6000828004E082884FF6F7731A4082807047C0
:101E700021B1828842F00102828004E082884FF61C
:101E8000FE731A40828070470A460021018B4FF68C
:101E9000F77319401143018370470A460021018BF3
:101EA0004FF2FF7319404FF6FF7303EA0223194301
:101EB000018370470A460021818B4FF6F773194062
:101EC0001143818370470A460021818B4FF2FF73D3
:101ED00019404FF6FF7303EA0223194381837047C9
:101EE0000A460021018B4FF6FB7319401143018311
:101EF00070470A460021018B4FF6FF3319404FF619
:101F0000FF7303EA02231943018370470A46002145
:101F1000818B4FF6FB7319401143818370470A464A
:101F20000021818B4FF6FF3319404FF6FF7303EA10
:101F300002231943818370470A460021018B4FF623
:101F40007F7319401143018370470A460021018BBA
:101F5000C1F30E014FF6FF7303EA02231943018315
:101F600070470A460021818B4FF67F731940114359
:101F7000818370470A460021818BC1F30E014FF621
:101F8000FF7303EA02231943818370470A46002145
:101F9000018C4FF6FD7319401143018470470A46C6
:101FA0000021018C4FF6F7731940114301847047EB
:101FB0000A460021018C4FF6DF7319404FF6FF737C
:101FC00003EA02131943018470470A460021018C79
:101FD0004FF67F7319404FF6FF7303EA021319435C
:101FE000018470470A460021018C4FF6FF531940C7
:101FF0004FF6FF7303EA02231943018470470A4630
:102000000021018C4FF2FF7319404FF6FF7303EA72
:1020100002231943018470470A460021018C4DF6C2
:10202000FF7319404FF6FF7303EA0233194301842B
:10203000704730B5002301248C40A3B2048C9C432C
:102040000484048C02FA01F5ADB22C43048430BD43
:1020500030B5002304248C40A3B2048C9C43048438
:10206000048C02FA01F5ADB22C43048430BD70B586
:102070000346002000241846183001258D40ACB2DC
:102080001D8CA5431D8409B1082909D100EB61000D
:10209000056825F0700505600568154305600EE0CC
:1020A0000D1FC5F34E052844056825F4E04505607D
:1020B00005684FF6FF7606EA02263543056070BDD7
:1020C00021B1028842F00202028004E002884FF649
:1020D000FD731A400280704721B1028842F0040269
:1020E000028004E002884FF6FB731A4002807047BA
:1020F00021B1828842F08002828004E082884FF61B
:102100007F731A408280704702884FF6F7731A4037
:10211000028002880A430280704782884FF68F73DC
:102120001A40828082880A438280704702894FF673
:10213000F8731A40028102890A43028170470289BA
:102140004FF67F731A40028102890A430281704769
:102150008184704781857047818670470187704709
:1021600081877047A0F84010704702884FF6FF4300
:102170001A40028002880A43028070470146888E16
:1021800070470146088F70470146888F70470146A7
:10219000B1F8400070470146888C70470146088DB1
:1021A000704702460020138A0B400BB1012000E06B
:1021B00000207047CA430282704730B502460020B3
:1021C00000230024158A05EA0103958905EA010424
:1021D00013B10CB1012000E0002030BDCA430282DF
:1021E000704700F1080141604FF0FF31816000F15C
:1021F0000801C16001610021016070470021016197
:10220000704742684A6093688B6093685960916038
:10221000086103685B1C0360704710B502460B68D9
:102220005C1C0CB9106907E002F1080000E040688E
:10223000446824689C42FAD944684C604C68A160A8
:10224000886041600A611468641C146010BD014616
:102250000A69D1E901309860D1E9010358605068FA
:10226000884201D188685060002008611068401ED3
:10227000106010687047000070B505460E462C4689
:1022800002F069F8D4E90F12206801FB02006060D7
:102290000020A0632068A060E06B401E226C2168D3
:1022A00000FB0210E060FF2084F8440084F8450041
:1022B0009EB9206908B9012000E00020A8B904F106
:1022C000100001F0B1F980B14FF08050FC49086076
:1022D000BFF34F8FBFF36F8F07E004F11000FFF7DC
:1022E00080FF04F12400FFF77CFF02F043F8012097
:1022F00070BD2DE9F04106460D4617469846069CEE
:102300000DB9246000E02760E663256401212046C2
:10231000FFF7B2FF0020A064BDE8F0812DE9F8438B
:1023200007460D4690460DB9002601E007FB05F66D
:1023300006F14C0001F041FF044644B104F14C09A0
:1023400043464A46294638460094FFF7D2FF2046C6
:10235000BDE8F8832DE9F04104460F4615464FF0DD
:102360000008A66B206C40B9206860BB606801F073
:102370007BFA80460020606025E07DB93946226CFA
:10238000A06804F07CF8216CA0680844A060D4E93F
:102390000110884217D32068A06014E03946226CEF
:1023A000E06804F06CF8216CE068401AE060216895
:1023B000E068884203D2216C6068401AE060022D18
:1023C00001D106B1761E701CA0634046BDE8F081C5
:1023D0002DE9F3410D460098846C0027A06BE16B5A
:1023E00088421BD294F945602A4669462046FFF789
:1023F000B1FF0746701C60B9606A08B9012000E0AF
:10240000002050B904F1240001F00EF928B1012791
:1024100003E0701C40B284F8450000BF3846BDE8B8
:10242000FC8170B5044601F096FF94F945501AE01E
:10243000A06C38B100212046FFF7CAFF88B101F037
:1024400087F90EE0606A08B9012000E0002038B981
:1024500004F1240001F0E8F818B101F079F900E086
:1024600003E0681E45B2002DE2DC00BFFF2084F8C7
:10247000450001F07FFF01F06EFF94F9445010E039
:10248000206908B9012000E0002048B904F11000DB
:1024900001F0CAF808B101F05BF9681E45B200E02E
:1024A00001E0002DECDC00BFFF2084F8440001F0C7
:1024B00061FF70BD70B5054601F04DFFA86BE96B7B
:1024C000884201D1012400E0002401F053FF20469E
:1024D00070BD2DE9FF4383B0074688461D464FF087
:1024E00000093C4600BF01F036FFA06BE16B88425B
:1024F00001D3022D38D12A4641462046FFF72AFF54
:102500000646A06C68B129462046FFF761FF28B354
:102510004FF080506A490860BFF34F8FBFF36F8F51
:102520001CE0606A08B9012000E0002068B904F1ED
:10253000240001F079F888B14FF0805060490860BC
:10254000BFF34F8FBFF36F8F08E03EB14FF0805065
:102550005B490860BFF34F8FBFF36F8F01F00AFF35
:10256000012007B0BDE8F083059818B901F002FF1B
:102570000020F6E7B9F1000F04D101A801F0B7F887
:102580004FF0010901F0F6FE00F05EFD01F0E3FE00
:1025900094F94400401C10B9002084F8440094F9D8
:1025A0004500401C10B9002084F8450001F0E2FE0F
:1025B00005A901A801F0A2F8F0B92046FFF77AFFBB
:1025C000A0B104F11000059900F0FAFF2046FFF7D2
:1025D00028FF00F06EFC002885D14FF0805038496C
:1025E0000860BFF34F8FBFF36F8F7CE72046FFF784
:1025F00018FF00F05EFC76E72046FFF712FF00F0C0
:1026000058FC0020ADE710B504464CB100206060D6
:102610002060E06000231A4619462046FFF759FF64
:1026200010BD2DE9F0410446012600272246002175
:102630000120FFF773FE05462846FFF7E4FF284612
:10264000BDE8F0812DE9F05F06468A4615461F4633
:10265000344600BF5021EFF3118081F31188BFF39E
:102660004F8FBFF36F8F00BF8146A06BE16B884235
:1026700001D3022F2ED194F945B03A465146204657
:10268000FFF768FE0BF10100E0B9A06C40B13946DC
:102690002046FFF79DFED0B1CDB10120286016E0A5
:1026A000606A08B9012000E0002080B904F124002C
:1026B00000F0BAFF58B155B10120286007E00000D2
:1026C00004ED00E00BF1010040B284F845004FF04A
:1026D000010801E04FF0000800BF89F3118800BF36
:1026E0004046BDE8F09F2DE9F04706460D463446CA
:1026F00000BF5021EFF3118081F31188BFF34F8F9A
:10270000BFF36F8F00BF8046D4F83890E06B484528
:1027100028D994F945A009F10100A0630AF101004C
:10272000C8B9A06C40B100212046FFF751FEB8B1F6
:10273000B5B10120286013E0606A08B9012000E00B
:10274000002068B904F1240000F06EFF40B13DB1F3
:102750000120286004E00AF1010040B284F845003D
:10276000012700E0002700BF88F3118800BF38462A
:10277000BDE8F08770B5054601F0EDFDA86B08B91E
:10278000012400E0002401F0F5FD204670BD70B585
:1027900004460D46206C70B1216CE0680844E0608E
:1027A0006168E068884201D32068E0602846226CB6
:1027B000E16803F064FE70BD2DE9FF4782B0054675
:1027C00089461E464FF0000A2C4600BF01F0C3FDAB
:1027D000D4F83880B8F1000F3BD0E768494620466E
:1027E000FFF7D5FFDEB9A8F10100A063206810B99A
:1027F00001F083F86060206908B9012000E0002042
:1028000008BB04F1100000F00FFFE0B14FF0805062
:10281000C2490860BFF34F8FBFF36F8F13E0E760CB
:10282000606A08B9012000E0002060B904F12400CA
:1028300000F0FAFE38B14FF08050B8490860BFF39D
:102840004F8FBFF36F8F01F095FD012006B0BDE8FB
:10285000F087049818B901F08DFD0020F6E7BAF171
:10286000000F04D1684600F042FF4FF0010A01F06A
:1028700081FD00F0E9FB01F06EFD94F94400401C7D
:1028800010B9002084F8440094F94500401C10B9A8
:10289000002084F8450001F06DFD04A9684600F0B1
:1028A0002DFF40BB2046FFF765FFF0B1206830B92F
:1028B00001F051FD606800F05EFF01F05BFD04F186
:1028C0002400049900F07CFE2046FFF7AAFD00F0EA
:1028D000F0FA00287FF47AAF4FF080508F490860FB
:1028E000BFF34F8FBFF36F8F70E72046FFF799FD5F
:1028F00000F0DFFA6AE72046FFF793FD00F0D9FA0F
:102900002046FFF737FF0028EED000209EE72DE994
:10291000F05F05468A4616462C4600BF5021EFF36D
:10292000118081F31188BFF34F8FBFF36F8F00BF0A
:102930008046D4F83890B9F1000F21D094F944B012
:1029400051462046FFF723FFA9F10100A0630BF1D8
:10295000010070B9206908B9012000E0002068B9C1
:1029600004F1100000F060FE40B13EB10120306083
:1029700004E00BF1010040B284F84400012700E0BC
:10298000002700BF88F3118800BF3846BDE8F09FDC
:102990002DE9F047054689462C4600BF5021EFF34C
:1029A000118081F31188BFF34F8FBFF36F8F00BF8A
:1029B0000746A06B48B1D4F80C8049462046FFF783
:1029C000E6FEC4F80C80012600E0002600BF87F375
:1029D000118800BF3046BDE8F08770B5044601F0AD
:1029E000BAFCA56B01F0C6FC284670BD70B5044664
:1029F000254601F0B0FCD5E90E10461A01F0BAFCEC
:102A0000304670BD0146886B704770B50446254658
:102A1000284601F030FC70BD01468A6B0AB90120DE
:102A200000E00020704701468A6BCB6B9A4201D1CF
:102A3000012000E0002070472DE9F04105460E46D8
:102A400017462C4601F087FC94F94400401C10B94D
:102A5000002084F8440094F94500401C10B900207F
:102A600084F8450001F086FCA06B28B93A4631464F
:102A700004F1240000F0C6FD2046FFF7D2FCBDE8BB
:102A8000F08170B50446002204212046FFF746FC81
:102A90000546284670BD70B504460E4601F05BFC45
:102AA000A06C08B1002505E0A06B08B1002501E08D
:102AB000A664012501F05EFC284670BD2DE9F041B9
:102AC00005460F462E46B06CB84201D000240AE0FD
:102AD000B06B08B1002406E001F03DFC0020B064BA
:102AE00001F048FC01242046BDE8F08138B50546D8
:102AF0000C46002000900023224669462846FFF736
:102B00005BFE009838BD38B50446002000900022D6
:102B100069462046FFF7FBFE009838BD04ED00E053
:102B200010B5002407E004EB8401FE4A02EB8100AB
:102B3000FFF757FB641C082CF5D3FB48FFF751FB4C
:102B4000FA48FFF74EFBFA48FFF74BFBF948FFF74F
:102B500048FBF948FFF745FBF348F8490860F3489C
:102B6000F749086010BD10B5044601F0F4FBF548C4
:102B70000068401CF3490860F348006840B9F24817
:102B800004600846006801280DD1FFF7C9FF0AE07C
:102B9000EE48006838B9EC480068C06AE16A8842CB
:102BA00001D8E9480460EA480068401CE849086028
:102BB00094F82C1001208840E64909680843E5494B
:102BC0000860E16A01EB8101D64A02EB8100211D18
:102BD000FFF717FB01F0CEFBDC48006868B1DA486C
:102BE0000068C06AE16A884207D24FF08050DA4933
:102BF0000860BFF34F8FBFF36F8F10BD2DE9FF5FEC
:102C000080460F469146DDE90E6A109CA9F101004D
:102C1000216B01EB800B2BF0070B002507E0795DA2
:102C200004F134004155785D00B902E06D1C102DAF
:102C3000F5D300BF002143200155082E00D30726FD
:102C4000E66266640020A064201DFFF7D7FA04F155
:102C50001800FFF7D3FA2461C6F10800A06164628E
:102C60000020E06484F8500041465846039A01F081
:102C700040FB2060BAF1000F01D0CAF80040BDE867
:102C8000FF9F2DE9FF4F85B0804689461746DDE955
:102C900012ABB80001F091FA064656B1542001F08B
:102CA0008CFA04460CB1266304E0304601F0E3FAE6
:102CB00000E000247CB10020CDE900ABCDE902406A
:102CC0003A4649464046089BFFF798FF2046FFF7E3
:102CD0004AFF012501E04FF0FF35284609B0BDE865
:102CE000F08F96490968096809B9012100E00021BF
:102CF00021B14FF0FF31994A116006E08F49096810
:102D0000C968C868954A41681160704710B50446A3
:102D1000206B01F0B0FA204601F0ADFA10BD70B59D
:102D2000054601F018FB15B98748006800E0284601
:102D30000446201DFFF78BFA78B9E06A00EB8000AB
:102D4000784951F8200040B994F82C1001208840AF
:102D50008049096881437F480160A06A18B104F185
:102D60001800FFF774FA7A480068401C7849086038
:102D700075480068844209D1211D6E48FFF741FA69
:102D800077480068401C7649086009E06D48006893
:102D9000401E6C4908602046FFF7B8FFFFF7A1FF0F
:102DA00001F0E8FA6948006858B167480068844251
:102DB00007D14FF0805068490860BFF34F8FBFF3D1
:102DC0006F8F70BD2DE9F04100276648006800282C
:102DD00063D165480068451C634805608DB9574854
:102DE000D0F8008056480068544908605448C0F83C
:102DF00000805E480068401C5C490860FFF771FF76
:102E000000BF5648006885423BD300BF4B4800686E
:102E1000006808B9012000E0002020B14FF0FF3029
:102E20004E4908602CE045480068C068C468666880
:102E3000B54202D24948066022E0201DFFF707FA9A
:102E4000A06A18B104F11800FFF701FA94F82C10E9
:102E5000012088403F49096808433E490860E16A0B
:102E600001EB81012F4A02EB8100211DFFF7C9F917
:102E70003549E06A0968C96A8842C7D30127C5E7AE
:102E800000BF31480068C06A00EB8000254951F856
:102E90002000012800D9012704E035480068401CC3
:102EA000334908603348006800B101273846BDE85F
:102EB000F08170B50024002601F04DFA2948006821
:102EC000401E284908600846006800287AD11D483D
:102ED0000068002876D024E01548C068C46804F172
:102EE0001800FFF7B4F9201DFFF7B1F994F82C1082
:102EF0000120884017490968084316490860E16ABB
:102F000001EB8101074A02EB8100211DFFF779F9EE
:102F10000D49E06A0968C96A884202D3012015494F
:102F2000086029E0C8000020680100207C01002022
:102F300090010020A4010020B80100202C000020F6
:102F4000300000203800002028000020440000202D
:102F5000540000204000002004ED00E05800002054
:102F600034000020600000203C00002050000020C1
:102F7000480000204C000020F948006808B90120F2
:102F800000E000200028A7D00CB1FFF7AAFEF5480A
:102F9000056865B100BFFFF715FF10B10120F249C8
:102FA00008606D1E002DF6D10020EE490860EE4845
:102FB000006838B101263007EC490860BFF34F8F35
:102FC000BFF36F8F01F0D6F9304670BD2DE9F041A7
:102FD00005460E46E6480768E6480068001DFFF70C
:102FE00036F950B9E348006890F82C100120884069
:102FF000E14909688143E0480160681C38B936B18D
:10300000DC480168091DDD48FFF7FBF81AE07C1970
:10301000D84800684460BC4207D2D6480168091D00
:10302000D7480068FFF7F9F80CE0D2480168091D9D
:10303000D4480068FFF7F1F8D3480068844201D211
:10304000D1480460BDE8F081D0480068401CCF49F9
:10305000086070472DE9F047044688464FF00009A4
:10306000FFF7F2FFC2480668206800EB08052068F9
:10307000B04207D92068A8420BD9B54209D94FF010
:10308000010906E02068A84201D8B54201D94FF0F5
:1030900001092560B9F1000F03D0A81B0021FFF73B
:1030A00095FFFFF706FF07463FB94FF08050AF4945
:1030B0000860BFF34F8FBFF36F8FBDE8F08770B527
:1030C0000446002544B1FFF7BFFF00212046FFF76B
:1030D0007DFFFFF7EEFE05463DB94FF08050A34956
:1030E0000860BFF34F8FBFF36F8F70BD2DE9F041C4
:1030F000064637469F480068874201D100241EE0FB
:1031000001F029F97D6901F035F99E480068854292
:1031100003D09B480068854201D102240FE0974804
:10312000854205D1B86A08B9032408E0022406E004
:103130009748854200D00DB9042400E001242046C0
:10314000BDE8F08170B5044601F005F914B989486D
:10315000006800E020460646F56A01F00BF92846B3
:1031600070BD70B5024600BF5025EFF3118485F3A2
:103170001188BFF34F8FBFF36F8F00BF214612B985
:103180007C4C246800E014462346D86A00BF81F3D3
:10319000118800BF70BD2DE9F04780460D464FF005
:1031A0000009082D00D3072501F0D5F8B8F1000F6C
:1031B00002D17048006800E040460446666CAE42AA
:1031C00056D0B5420BD96B48006884420DD069488F
:1031D0000068C06AA84208D84FF0010905E06548B8
:1031E0000068844201D14FF00109E76AE16A606C2E
:1031F000884200D1E5626564A06900F0004010B922
:10320000C5F10800A06107EB8701624A02EB81016A
:103210006069884201D1012000E00020E0B1201D5A
:10322000FFF715F830B90120B840534909688143C8
:103230005148016094F82C10012088404E490968DB
:1032400008434D490860E16A01EB8101514A02EBF4
:103250008100211DFEF7D5FFB9F1000F07D04FF017
:10326000805042490860BFF34F8FBFF36F8F00BF9C
:1032700001F080F8BDE8F0874448006818B10120EB
:10328000394908601DE00020374908603A48006865
:10329000B0FA80F0C0F11F0101EB81023D4B03EB5E
:1032A000820042685268426000F10802436893421B
:1032B00002D14268526842604268D2682D4B1A605F
:1032C00000BF704770B5054601F045F815B92948AB
:1032D000006800E028460446201DFEF7B8FF78B9D4
:1032E000E06A00EB80002B4951F8200040B994F8C7
:1032F0002C10012088402049096881431E48016044
:10330000A06A18B104F11800FEF7A1FF211D1B48A7
:10331000FEF777FF01F02EF81F48006828B101F092
:103320001AF8FFF7DEFC01F025F812480068844225
:1033300038D11948006840B14FF080500B490860FF
:10334000BFF34F8FBFF36F8F2CE00C480068134919
:103350000968884224D100200649086022E0000064
:1033600090010020480000204C00002004ED00E007
:103370003C0000202800002040000020B801002070
:10338000300000202C0000205800002060000020A9
:10339000A4010020C80000204400002038000020C4
:1033A000FFF76AFF70BD10B5014600200A46FE4CCB
:1033B0005369A34201D1012300E0002373B1FB4C08
:1033C000936AA34201D1012300E0002333B9936A39
:1033D0000BB9012300E0002303B1012010BD70B53B
:1033E00005462C4674B3F248006884422AD000F0A7
:1033F000B2FF2046FFF7D7FF10B3201DFEF727FFCF
:1034000094F82C1001208840EA4909680843E949EA
:103410000860E16A01EB8101E74A02EB8100211DAE
:10342000FEF7EFFEE249E06A0968C96A884207D3FD
:103430004FF08050E1490860BFF34F8FBFF36F8FAB
:1034400000F098FF70BD2DE9F04106460027344694
:1034500000BF5021EFF3118081F31188BFF34F8F2C
:10346000BFF36F8F00BF05462046FFF79CFF20B3D8
:10347000D3480068E0B9CE49E06A0968C96A884261
:1034800000D30127201DFEF7E2FE94F82C10012046
:103490008840C84909680843C6490860E16A01EBE9
:1034A0008101C54A02EB8100211DFEF7AAFE04E05E
:1034B00004F11801BD48FEF7A4FE00BF85F3118892
:1034C00000BF3846BDE8F08170B523E0FFF7BCFDD2
:1034D000BC48006808B9012000E000200546FFF75D
:1034E000E8FCBDB900F037FFB648C068C468201DCD
:1034F000FEF7ADFEB4480068401EB3490860B3480B
:103500000068401EB149086000F034FF2046FFF714
:10351000FDFB00BFAD4800680028D7D170BD00BFDB
:10352000FFF7D2FFFCE71CB5A94800210B4680221B
:10353000CDE90010A7A1A948FFF7A3FB0446012C81
:1035400002D100F04CFD0446012C14D100BF5020E4
:1035500080F31188BFF34F8FBFF36F8F00BF4FF021
:10356000FF309F49086001209E49086000209E4965
:10357000086000F0DAFE1CBD10B500BF502080F3DB
:103580001188BFF34F8FBFF36F8F00BF00209549A5
:10359000086000F0DFFE10BD934908687047002105
:1035A000914A10687047884800687047014611B911
:1035B0007F48006800E00846024602F13400704788
:1035C00070B505460C467A48016818312846FEF762
:1035D00024FE01212046FFF7F9FC70BD70B50646B8
:1035E0000C46154644F000407149096888617048EE
:1035F000016818313046FEF704FE01212846FFF726
:10360000E5FC70BD70B506460D4614466848016875
:1036100018313046FEF7F5FD0CB14FF0FF3521466D
:103620002846FFF7D3FC70BD70B50646F068C46845
:1036300004F11800FEF70BFE61480068A8B9201DD0
:10364000FEF705FE94F82C100120884059490968BE
:10365000084358490860E16A01EB8101564A02EBD0
:103660008100211DFEF7CDFD04E004F118014F4853
:10367000FEF7C7FD4E49E06A0968C96A884204D965
:10368000012501205949086000E00025284670BD49
:103690002DE9F04105460F4647F000402860EC68F0
:1036A0002846FEF7D4FD201DFEF7D1FD94F82C101E
:1036B000012088403F49096808433E490860E16AA3
:1036C00001EB81013C4A02EB8100211DFEF799FDCF
:1036D0003749E06A0968C96A884204D9012601208D
:1036E0004249086000E000263046BDE8F0814049CC
:1036F000096801603C4909684160704770B504463B
:103700000D4600F028FE384802682868401C08B9B9
:10371000002619E0364920680968884204D06068AC
:10372000904201D801260FE06068101A296888428B
:1037300009D228686168511A401A28602046FFF7AC
:10374000D6FF002600E0012600F014FE304670BDD2
:1037500001202649086070471549086870472149CB
:10376000096809B9012005E01549096809B902206D
:1037700000E00020704770B505462C46002D72D041
:103780000B49E06A0968C96A88426CD2A06900F0F6
:10379000004028B906480068C06AC0F10800A0616E
:1037A000E16A01EB810125E0B801002090010020D1
:1037B0002800002040000020C800002004ED00E0A8
:1037C00060000020A4010020380000203400002008
:1037D0005C00002049444C45000000001F350008F3
:1037E00058000020440000203C0000204C00002035
:1037F00050000020FE4A02EB81016069884201D13D
:10380000012000E0002050B3201DFEF720FD78B914
:10381000E06A00EB8000F64951F8200040B994F8C6
:103820002C1001208840F34909688143F148016068
:10383000F1480068C06AE06294F82C1001208840CA
:10384000EC4909680843EB490860E16A01EB810132
:10385000E74A02EB8100211DFEF7D3FC03E0E648B6
:103860000068C06AE06270BD70B505462C4600264F
:10387000ADB3A06C401EA064616CE06A88422ED09B
:10388000A06C60BB201DFEF7E2FC78B9E06A00EB9B
:103890008000D74951F8200040B994F82C1001203D
:1038A0008840D44909688143D2480160606CE06275
:1038B000E06AC0F10800A06194F82C100120884053
:1038C000CC4909680843CB490860E16A01EB8101F2
:1038D000C74A02EB8100211DFEF793FC012630460A
:1038E00070BDC54909688869C3490968C96AC1F1D9
:1038F0000801C14A126891617047BF48006830B141
:10390000BD49096801F14800896C491C0160BA4849
:103910000068704770B506460D4600F01CFDB648BD
:103920000068C06C88B90120B349096881F850006B
:103930005DB101212846FFF749FB4FF08050AF49A8
:103940000860BFF34F8FBFF36F8F00F013FD00F0DF
:1039500002FDA9480068C46C4CB126B10020A649FC
:103960000968C86403E0601EA3490968C8640020B0
:10397000A149096881F8500000F0FCFC204670BDA8
:103980002DE9F0410746884614461D4600F0E3FC49
:103990009948006890F85000022818D096490968A4
:1039A00001F14C00C96CB9430160012092490968DA
:1039B00081F850005DB101212846FFF707FB4FF069
:1039C00080508E490860BFF34F8FBFF36F8F00F0B8
:1039D000D1FC00F0C0FC1CB187480068C06C2060BE
:1039E0008548006890F85000012801D1002608E0C1
:1039F0008149096801F14C00C96C21EA08010160A4
:103A0000012600207C49096881F8500000F0B2FCD2
:103A10003046BDE8F0812DE9F04781460D46164657
:103A20001F464FF0010A4C4600F095FC0FB1E06CC8
:103A3000386094F85080022084F85000052E17D288
:103A4000DFE806F01503070B0D00E06C2843E06487
:103A50000EE0E06C401CE0640AE0E56408E0B8F1C8
:103A6000020F01D0E56401E04FF0000A00E000BF62
:103A700000BFB8F1010F22D1201DFEF7E8FB94F83A
:103A80002C10012088405B490968084359490860A7
:103A9000E16A01EB8101564A02EB8100211DFEF72C
:103AA000B0FB5549E06A0968C96A884207D94FF0F6
:103AB000805052490860BFF34F8FBFF36F8F00F003
:103AC00059FC5046BDE8F0872DE9F84F82460D4677
:103AD00016461F46DDF828B001200090544600BF6E
:103AE0005021EFF3118081F31188BFF34F8FBFF3A3
:103AF0006F8F00BF81460FB1E06C386094F8508042
:103B0000022084F85000052E17D2DFE806F01503D6
:103B1000070B0D00E06C2843E0640EE0E06C401CF5
:103B2000E0640AE0E56408E0B8F1020F01D0E56462
:103B300001E00020009000E000BF00BFB8F1010FDD
:103B40002DD12F480068A8B9201DFEF780FB94F8FE
:103B50002C1001208840274909680843254908603E
:103B6000E16A01EB8101224A02EB8100211DFEF78F
:103B700048FB04E004F118012248FEF742FB1E490D
:103B8000E06A0968C96A884209D9BBF1000F03D00D
:103B90000120CBF8000002E001201B49086000BFB3
:103BA00089F3118800BF0098BDE8F88F2DE9F04136
:103BB00005460E462C4600BF5021EFF3118081F3DD
:103BC0001188BFF34F8FBFF36F8F00BF074694F884
:103BD0005080022084F85000E06C401CE064B8F192
:103BE000010F3AD10648006828BB201D0EE00000F6
:103BF000C8000020400000202800002004ED00E064
:103C000060000020900100204C000020FEF71FFB08
:103C100094F82C10012088401F49096808431E4968
:103C20000860E16A01EB81011C4A02EB8100211D61
:103C3000FEF7E7FA04E004F118011948FEF7E1FA8B
:103C40001849E06A0968C96A884206D916B1012094
:103C5000306002E001201449086000BF87F311883A
:103C600000BFBDE8F08170B5054615B90D48006884
:103C700000E02846064600F06EFB96F85000022849
:103C800004D1002086F85000012400E0002400F058
:103C900071FB204670BD000040000020C8000020DD
:103CA00090010020280000204C0000202DE9F04168
:103CB00004460D4616461F464FF000086560246115
:103CC000B5420CD8F01BA169884202D34FF001081D
:103CD00011E0211DF8480068FEF79FFA0BE0BE4294
:103CE00004D2BD4202D34FF0010804E0211DF34885
:103CF0000068FEF792FA4046BDE8F0812DE9FE43E8
:103D000005460C4616461F46DDF828804FF0000990
:103D1000EB48006810B3009401960295062C15DA62
:103D2000FFF71DFD022808D1002342466946E448FA
:103D30000068FEF7CEFB814610E000231A46694674
:103D4000DF480068FEF7C5FB814607E000233A46DE
:103D50006946DB480068FEF775FC81464846BDE8C9
:103D6000FE832DE9F84326E0D4480068C068056862
:103D7000D2480068C068C468201DFEF768FA204673
:103D8000616A8847E069012815D1A0694619AE42E9
:103D900007D966602461211DC8480068FEF73DFA16
:103DA00009E0002003462A46014600902046FFF71E
:103DB000A5FF804600BFC1480068006808B901201F
:103DC00000E000200028CFD0BC480768BA4800684F
:103DD000BA490860B8480760BDE8F88370B5044682
:103DE000FFF7DAFB0546B7480068854204D2FFF7C3
:103DF000B8FF0120206001E000202060B14805608C
:103E0000284670BD70B586B04DE0039800284ADBA7
:103E1000059C606908B9012000E0002010B9201D50
:103E2000FEF715FA02A8FFF7D9FF054603980A28FE
:103E300037D2DFE800F009050725273206082628D3
:103E400000BF00BF00BF00BF0498A26981180346ED
:103E50002A462046FFF72AFF88B12046616A884734
:103E6000E06901280BD1002000900498A169421854
:103E7000002319462046FFF741FF064600BF11E028
:103E800000BF0FE000BF0498A061A06941192B4654
:103E90002A462046FFF70AFF04E0204600F0EBF92F
:103EA00000E000BF00BF00231A4603A98448006851
:103EB000FEF782FC0028A8D106B070BDF8B5054613
:103EC0000E467E480068C068C468201DFEF7BFF932
:103ED000E069012811D1A06941192B4632462046DC
:103EE000FFF7E4FE48B1002003462A460146009051
:103EF0002046FFF703FF074600BF2046616A884758
:103F0000F8BDF8B505460C46FFF79EF86846FFF782
:103F100065FF0646009820BB44B9B54206D8FEF7B7
:103F2000C8FF31462846FFF7C9FF1CE03CB1624894
:103F30000068006808B9012000E000200446A91BC1
:103F400022465F480068FEF777FDFEF7B2FF50B9E2
:103F50004FF080505C490860BFF34F8FBFF36F8F05
:103F600001E0FEF7A6FFF8BD0146544A1268126848
:103F70000AB9012200E000220A600A6822B94F4A09
:103F80001268D268106800E00020704708B500BFD2
:103F90006846FFF7E9FF044620460099FFF7B1FFA6
:103FA000FFF730FFF4E710B500F0D5F9444800689A
:103FB00090B94648FEF715F94548FEF712F943480F
:103FC0003E49086042483C49086000220C210A2012
:103FD000FEF7A4F93A49086000F0CCF910BD1CB511
:103FE0000024FFF7E0FF3648006858B13948072140
:103FF00000234FF48072CDE9001037A13848FEF756
:1040000040FE044620461CBD2DE9F04705460E46FD
:1040100017469846DDE908945CB1FFF7C4FF2560B8
:10402000A661E761C4F82080C4F82490201DFEF743
:10403000E5F8BDE8F0872DE9FC4705460E46174632
:104040009846DDF82890282000F0B7F804463CB1E7
:1040500043463A4631462846CDE90094FFF7D4FF5F
:104060002046BDE8FC871B480068704701460A46A9
:104070009069704701460A465068704701460A46F3
:104080001068704770B50446264600F064F9706900
:1040900008B9012000E0002080F0010500F06AF975
:1040A000284670BD70B50446264600F054F9356ABE
:1040B00000F060F9284670BD680000206400002010
:1040C0006C0000207400002004ED00E0CC01002012
:1040D000E001002070000020546D722053766300D0
:1040E0008D3F000870B504460D46264600F033F9B2
:1040F000356200F03FF970BD10B50146714800E02F
:10410000006803688B42FBD30246436813448B422A
:1041100004D143684C682344436001460A464B6817
:1041200013440468A34211D1674C03682468A34276
:1041300008D04B680468646823444B6003681B68BC
:104140000B6005E0604B1B680B6001E003680B60CF
:10415000884200D0016010BD30B54FF4A0435B48E9
:1041600000F007042CB1C01D20F00700574C041BC1
:104170001B1B0246534C22600024524D6C60D01829
:10418000083820F00700504C206000244E4D2D6868
:104190006C604D4D2D682C601146441A4C604A4CA1
:1041A00024680C604A4D4C682C604A4D4C682C6069
:1041B0004FF00044484D2C6030BD2DE9F0410546DC
:1041C0004FF00008FEF740FF3F48006808B9FFF7CE
:1041D000C3FF414800682840002847D145B1083551
:1041E00005F0070020B105F00700C0F10800054404
:1041F000002D3BD037480068854237D8314E3046D5
:10420000046801E0264624686068A84202D220685B
:104210000028F7D12C480068844227D0306800F18C
:104220000808206830606068401B102807D96719AB
:104230006068401B786065603846FFF75DFF254980
:1042400060680968081A2349086008460068204920
:104250000968884203D21F4800681D4908601E494A
:10426000606809680843606000202060FEF721FE56
:104270004046BDE8F08170B506463546D6B1083DEA
:104280002C46154960680968084098B1206888B9CB
:1042900011496068096888436060FEF7D5FE0D49E2
:1042A0006068096808440B4908602046FFF724FF4E
:1042B000FEF7FFFD70BD07480068704704480068BE
:1042C000704770477800002080000020F401002033
:1042D00088000020840000208C00002000BF5020B7
:1042E00080F31188BFF34F8FBFF36F8F00BF00BF04
:1042F000FEE7001F4FF080730360001F21F00103F1
:104300000360001F2E4B0360143802602038704792
:104310002C4800684FF47A71B0FBF1F0401E4FF06A
:10432000E021486107200861704710B52648006801
:1043300040F47000244908600846006840F070406E
:104340000860FFF7E5FF002020490860FBF750FFF9
:10435000002010BD704700BF502080F31188BFF3CC
:104360004F8FBFF36F8F00BF18480068401C17497C
:104370000860704715480068401E144908600846E8
:10438000006820B9002080F3118800BF00BF70478B
:1043900010B500BF502080F31188BFF34F8FBFF3DB
:1043A0006F8F00BFFEF70EFD20B14FF08050064921
:1043B0001C39086000BF002080F3118800BF10BDC9
:1043C000DD4200080000002020ED00E09000002009
:1043D00070B504460E46A568681C6168814206D324
:1043E00020684655681CA060E068401CE060D4E985
:1043F000011088420DD1A2682168206900F0C9FC33
:10440000A168884203D04FF0FF30E06001E0002057
:10441000A06070BD2DE9FC5F8046894615461E46AA
:104420000C9CCDF804900127BB4605E00198B0FB39
:10443000F5F001900BF1010B0198A842F6D25E4510
:1044400000D9B3460D9800F00100D0B9CCB10D9859
:1044500000F00200022803D116B93020009001E0DC
:104460002020009009E0641E40460099FFF7B0FF4D
:10447000D8F80C00002800DA02E00CB1A345F2D312
:1044800000BFD8F80C00002835DB09E0012E01D967
:10449000761E04E0B9FBF7FAAA4500D201E06F43AB
:1044A000F4E700BF00BFB9FBF7FA0AFB1799D94838
:1044B00010F80A104046FFF78BFFD8F80C000028D0
:1044C00000DA03E0B7FBF5F7002FECD100BF0D9841
:1044D00000F0010078B174B109E0641E202140466B
:1044E000FFF776FFD8F80C00002800DA02E00CB1E4
:1044F000A345F2D300BFBDE8FC9F2DE9FC5F064653
:104500000F4692469846DDE90C45002F01DA7842C5
:1045100000E0384683464FF0010903E09BFBFAFBBD
:1045200009F10109D345F9DAC84500D9C14634B1CA
:10453000002F03DB05F00400042800D1641E05F001
:10454000020010B1B8F1000F11D005F0010070B9F0
:104550006CB108E0641E20213046FFF739FFF06897
:10456000002800DA02E00CB1A145F3D300BFF068E7
:10457000002836DB002F05DA7F422D213046FFF779
:1045800027FF07E005F00400042803D12B21304663
:10459000FFF71EFFF068002823DB05F00200022869
:1045A00014D105F0010088B9B8F1000F0ED16CB13B
:1045B00008E0641E30213046FFF70AFFF06800284B
:1045C00000DA02E00CB1A145F3D300BFF068002887
:1045D00007DB4346524639463046CDE90045FFF7F2
:1045E00019FFBDE8FC9F2DE9F04F99B082460D46BA
:1045F000144603A814904020159000201690CDF882
:1046000060A0179000BF2E786D1C06B9DDE0252E46
:1046100079D100274FF0010900BF2E78232E12D048
:104620002B2E0CD02D2E02D0302E10D103E047F0CF
:1046300001076D1C0EE047F002076D1C0AE047F011
:1046400004076D1C06E047F008076D1C02E04FF000
:10465000000900BF00BFB9F1000FDED14FF0000824
:1046600000BF2E78302E01DB392E00DD07E06D1CF7
:10467000A6F1300008EB880100EB4108F1E700BF2C
:10468000002013902E782E2E12D16D1C00BF2E7894
:10469000302E01DB392E00DD09E06D1CA6F1300063
:1046A000139901EB810100EB41001390EFE700BF8C
:1046B0002E7800BF6C2E01D0682E02D16D1C2E7892
:1046C00000E000E0F6E700BF702E5DD008DC252E8C
:1046D0006AD0582E35D0632E09D0642E69D113E0EC
:1046E000732E3CD0752E1DD0782E62D128E0216823
:1046F000081D2060D1F8009009F0FF0B594614A85E
:10470000FFF766FE56E058E02168081D2060D1F8EA
:104710000090CDE900870A22494614A8139BFFF7B1
:10472000ECFE47E02168081D2060D1F80090CDE93B
:1047300000870A22494614A8139BFFF76BFE39E055
:1047400000BF2168081D2060D1F80090CDE90087E6
:104750001022494614A8139BFFF75CFE2AE021684B
:10476000081D2060D1F800B000BF9BF800600BF17D
:10477000010B06B906E0314614A8FFF729FE179889
:104780000028F2DA00BF15E02168081D2060D1F88A
:104790000090002008210B461022CDE90010494668
:1047A00014A8FFF737FE05E0252114A8FFF710FE37
:1047B00000E000BF00BF6D1C03E0314614A8FFF706
:1047C00007FE17980028BFF61EAF00BF17980028F5
:1047D0000ADD169820B103A95046169A00F0D9FABE
:1047E000DDE9161008441790179819B0BDE8F08F4E
:1047F0000FB438B5044606A800906A4620460599CD
:10480000FFF7F1FE054600200090284638BC5DF811
:1048100014FB0000E665000810B5FD4C0320206184
:104820006061FCA0A061FE49E1614FF480612162FA
:104830000021A1626162E162F6A02066F949616629
:104840001021A16600212167E1666167F6A1E01DE4
:1048500001F0D2FDF5A1204601F0CEFD2020A0718F
:1048600010BD2DE9F0470446894617464FF0000A6F
:10487000E56800BFD4F81080A84503D9A8EB05006F
:10488000461E04E0A5EB0800401CA1680E1AA068B3
:10489000401BB04201D9304601E0A068401B0646EB
:1048A000BE4201D2304600E03846064661684819EB
:1048B0003246494601F0E3FDB244B144BF1B3544E2
:1048C000A068A84200D10025E560002FD2D1504653
:1048D000BDE8F0872DE9F047044689461546E668AD
:1048E000A068871BAF4208D9616888192A464946E3
:1048F00001F0C5FD7019E06010E0B84661688819E4
:104900004246494601F0BBFDA5EB070809EB07014C
:104910004246606801F0B3FDC4F80C80BDE8F08742
:1049200038B505460C46FF208DF80000C148005DF3
:104930008DF80100022269462846FFF792FF38BD34
:1049400010B501460A69CB689A4204D88C68641E87
:10495000E41AA01801E0D41A601E10BD2DE9F74F2B
:104960008346174600BFAA48007808B9FFF754FFEE
:1049700000BF0BEB4B01A648183000EBC106DDF879
:1049800004903569D6F80CA04FF00008554515D9AC
:10499000B068441BBC4201D2204600E038460446C1
:1049A000706841192246484601F069FDA044A144BF
:1049B0003F1B2544B068A84200D10025AAEB05049E
:1049C000BC4201D2204600E0384604464CB1706833
:1049D00041192246484601F052FDA044A1443F1B24
:1049E0002544B8F1000F00D035614046BDE8FE8F88
:1049F0002DE9F74F8346174600BF8548007808B970
:104A0000FFF70AFF00BF0BEB4B018148603000EB62
:104A1000C106DDF804903569D6F80CA04FF0000807
:104A2000554515D9B068441BBC4201D2204600E070
:104A300038460446706841192246484601F01FFD79
:104A4000A044A1443F1B2544B068A84200D10025E2
:104A5000AAEB0504BC4201D2204600E038460446D9
:104A60004CB1706841192246484601F008FDA04447
:104A7000A1443F1B2544B8F1000F00D035614046EA
:104A8000BDE8FE8F2DE9F04104460D461646EFF3D2
:104A900011808046202080F3118800BF00BF32467D
:104AA00029462046FFF75AFF074608F0FF0080F32B
:104AB000118800BF00BF3846BDE8F0812DE9F04104
:104AC00004460D461646EFF311808046202080F301
:104AD000118800BF00BF324629462046FFF788FFF5
:104AE000074608F0FF0080F3118800BF00BF38467A
:104AF000BDE8F0812DE9F047074688461646C146D5
:104B000007EB47014248183000EBC104D4E9030128
:104B1000884202D1A068451E0EE0D4E90301884214
:104B200004D22069E168401A451E05E02069E16869
:104B3000401A401EA1684518AE420CD92069711B6D
:104B40000844206103E02069A168401A20612069BF
:104B5000A1688842F7D2D4E90201451A00BFB542E4
:104B60000AD9E268616888183246494601F087FC34
:104B7000E0683044E0600EE0E268616888182A4628
:104B8000494601F07CFCA9440020E060761BA06847
:104B9000451E002EE3D100BFBDE8F0872DE9F84F98
:104BA00082468B461546CDF800B00AEB4A011848FC
:104BB000183000EBC104D4F81090E668B1453ED837
:104BC000A068801B471EAF420BD300BF61688819E5
:104BD0002A46009901F053FC7019E0600120BDE8FD
:104BE000F88F4F44AF4230D3A068A0EB060861684D
:104BF00088194246009901F042FCA5EB080535B141
:104C0000009A02EB08012A46606801F038FC13E0C4
:104C1000F45100205465726D696E616C00000000F3
:104C20009C5200209C560020525454005345474744
:104C30004552000094000020E5600120CFE7A9EB79
:104C40000600471EAF4200D3C0E70020C7E72DE9AA
:104C5000F047074688461646C24607EB4701F74825
:104C600000EBC109D9F8140020B1012811D00228A5
:104C700026D11EE04846FFF763FE0546B54201D245
:104C8000002405E03446324651464846FFF722FEEE
:104C900018E04846FFF754FE0546B54201D22846C3
:104CA00000E030460446224651464846FFF712FED1
:104CB00008E0324651464846FFF7D3FD044601E07E
:104CC000002400BF00BF2046BDE8F0872DE9F04773
:104CD000074688461646C24607EB4701D74848387C
:104CE00000EBC109D9F8140020B1012811D0022825
:104CF00026D11EE04846FFF723FE0546B54201D205
:104D0000002405E03446324651464846FFF7E2FDAE
:104D100018E04846FFF714FE0546B54201D2284682
:104D200000E030460446224651464846FFF7D2FD91
:104D300008E0324651464846FFF793FD044601E03D
:104D4000002400BF00BF2046BDE8F0872DE9F041F8
:104D500004460D46164600BFB8486038007808B9CA
:104D6000FFF75AFD00BFEFF311800746202080F3C4
:104D7000118800BF00BF324629462046FFF767FF73
:104D80008046F8B280F3118800BF00BF4046BDE8FE
:104D9000F0812DE9F04104460D46164600BFA748B4
:104DA0006038007808B9FFF737FD00BFEFF31180D6
:104DB0000746202080F3118800BF00BF32462946F5
:104DC0002046FFF783FF8046F8B280F3118800BFCA
:104DD00000BF4046BDE8F08170B505460C46204650
:104DE00001F02EFB0646324621462846FFF7D1FF4A
:104DF00070BD70B503460C4603EB43068F4D483D2E
:104E000005EBC601CD686A1C8D68954200D1002271
:104E10000D69954205D0CE684D68AC55CA60012039
:104E200000E0002070BD2DE9F0410746884600BF34
:104E300082486038007808B9FFF7EEFC00BFEFF356
:104E400011810846202181F3118800BF00BF07EBC4
:104E500047027A49483901EBC204E1684D1CA16858
:104E6000A94200D100252169A94206D0E268616803
:104E700001F80280E560012600E00026C1B281F35E
:104E8000118800BF00BF3046BDE8F0812DE9F04138
:104E90000746884600BF69486038007808B9FFF7C0
:104EA000BBFC00BFEFF311810846202181F311887C
:104EB00000BF00BF07EB47026049483901EBC2045D
:104EC000E1684D1CA168A94200D100256169022951
:104ED00003D100BF2169A942FCD02169A94206D0B3
:104EE000E268616801F80280E560012600E00026C2
:104EF000C1B281F3118800BF00BF3046BDE8F08128
:104F000038B5012269460020FFF7D8FD0446012C80
:104F100002D19DF8004001E04FF0FF34204638BD3B
:104F200010B500BFFFF7ECFF0028FBDB10BD70B52C
:104F300000BF42486038007808B9FFF76DFC00BF39
:104F40003E486038056FC06EA84201D0012400E0E1
:104F50000024204670BD10B5014601EB41043748DE
:104F600000EBC402D3681069181A10BD10B50146D1
:104F700001EB41043148483800EBC4021369D068A2
:104F8000C01A10BD2DE9F04105460E461746984659
:104F900000BF2A486038007808B9FFF73DFC00BF21
:104FA000EFF311810846202181F3118800BF00BF73
:104FB000002400BF04EB4402204901EBC201496810
:104FC00001B905E0641C1D4960394969A142F1DC61
:104FD00000BF1A4960394969A14224DD04EB44024B
:104FE000164941F8325004EB440201EBC2014E6015
:104FF00004EB4402114901EBC2018F60002204EB73
:1050000044030E4901EBC3010A6104EB44030B495D
:1050100001EBC301CA6004EB4402084901EBC20181
:10502000C1F8148001E04FF0FF34C1B281F3118860
:1050300000BF00BF2046BDE8F081000054520020B0
:105040002DE9F04105460E461746984600BFFE483A
:10505000007808B9FFF7E0FB00BFEFF311810846C5
:10506000202181F3118800BF00BF002400BF04EBA2
:105070004402F549183101EBC201496801B904E065
:10508000641CF1490969A142F1DC00BFEE490969DC
:10509000A14229DD04EB4402EB49183141F83250BA
:1050A00004EB440201EBC2014E6004EB4402E6490A
:1050B000183101EBC2018F60002204EB4403E24986
:1050C000183101EBC3010A6104EB4403DE491831D6
:1050D00001EBC301CA6004EB4402DB49183101EB68
:1050E000C201C1F8148001E04FF0FF34C1B281F376
:1050F000118800BF00BF2046BDE8F0812DE9F047D0
:1051000004460E4617469846DDF8209000BFCE486C
:10511000007808B9FFF780FB00BFCB480069A042C8
:1051200039D9EFF311810846202181F3118800BF9E
:1051300000BF0CB304EB4402C349183141F832609C
:1051400004EB440201EBC2014F6004EB4402BE4990
:10515000183101EBC201C1F80880002204EB4403BE
:10516000B949183101EBC3010A6104EB4403B649A4
:10517000183101EBC301CA6004EB4402B249183193
:1051800001EBC201C1F81490C1B281F3118800BFD4
:1051900000BF002501E04FF0FF352846BDE8F0874D
:1051A0002DE9F04704460E4617469846DDF8209054
:1051B00000BFA548007808B9FFF72EFB00BFA24842
:1051C0004069A04239D9EFF311810846202181F3CB
:1051D000118800BF00BF0CB304EB44029A49603150
:1051E00041F8326004EB440201EBC2014F6004EB72
:1051F00044029549603101EBC201C1F808800022E8
:1052000004EB44039049603101EBC3010A6104EBF4
:1052100044038D49603101EBC301CA6004EB4402D1
:105220008949603101EBC201C1F81490C1B281F328
:10523000118800BF00BF002501E04FF0FF35284670
:10524000BDE8F08770B504460E4600BF7E48007882
:1052500008B9FFF7E1FA00BF7B480069A04214D902
:10526000EFF311810846202181F3118800BF00BFB0
:1052700004EB44027449183141F83260C1B281F341
:10528000118800BF00BF002501E04FF0FF35284620
:1052900070BD70B504460E4600BF6B48007808B973
:1052A000FFF7BAFA00BF68484069A04214D9EFF38B
:1052B00011810846202181F3118800BF00BF04EB53
:1052C00044026149603141F83260C1B281F3118812
:1052D00000BF00BF002501E04FF0FF35284670BD3C
:1052E00070B504460E4600BF5748007808B9FFF76E
:1052F00093FA00BF54480069A04215D9EFF3118119
:105300000846202181F3118800BF00BF04EB44024E
:105310004D49183101EBC2014E61C1B281F31188D0
:1053200000BF00BF002501E04FF0FF35284670BDEB
:1053300070B504460E4600BF4348007808B9FFF731
:105340006BFA00BF40484069A04215D9EFF31181C4
:105350000846202181F3118800BF00BF04EB4402FE
:105360003949603101EBC2014E61C1B281F311884C
:1053700000BF00BF002501E04FF0FF35284670BD9B
:1053800010B5FFF749FA10BD2DE9F843044600BFF8
:105390002D48007808B9FFF73FFA00BF0027FF202B
:1053A0008DF80000102C31D22848005D8DF80100E6
:1053B000254D1835EFF311808046202080F31188A9
:1053C00000BF00BF287D00F00300022807D120485D
:1053D0000470022269462846FFF743FA0FE0284688
:1053E000FFF7AEFA0646022E07D3194804700222D0
:1053F00069462846FFF76EFA01E04FF0FF3708F0E4
:10540000FF0080F3118800BF00BF01E04FF0FF37BD
:105410003846BDE8F8832DE9F0470746894600BFC6
:105420000948007808B9FFF7F7F900BF102F70DAC4
:10543000DFF8148008F11808484601F001F8064624
:10544000EFF31180824605E0F45100209400002023
:10545000A4000020202080F3118800BF00BF404638
:10546000FFF76EFA054698F8140000F0030020B12B
:10547000012817D0022840D12FE0301D854201D2EB
:1054800000240EE039464046FFF74AFA32464946C4
:105490004046FFF7E6F90446334801784046FFF7F7
:1054A0003FFA2DE0042D02D24FF0FF3414E03946CC
:1054B0004046FFF735FA281FB04201D9304600E0D8
:1054C000281F024649464046FFF7CBF904462648C6
:1054D00001784046FFF724FA12E039464046FFF7CC
:1054E0001FFA324649464046FFF7BBF904461E48BC
:1054F00001784046FFF714FA02E04FF0FF3400BF96
:1055000000BF0AF0FF0080F3118800BF00BF02E077
:10551000FFE74FF0FF342046BDE8F08710B50446A2
:1055200004EB4402114901EBC200FFF709FA10BD78
:1055300030B5014601EB41050C4C04EBC504226972
:1055400001EB4105094C04EBC504E3689A4201D81C
:10555000981A07E001EB4105044C04EBC504A4686C
:105560009D1A601B30BD0000A40000200C520020DA
:1055700070B504460D46164635B1012D22D0022DD8
:105580003ED0032D5BD159E03CB90021FE48FCF729
:10559000E7FD0021FC48FCF7E5FD012C07D10021C7
:1055A000FA48FCF7D9FD0021F848FCF7D7FD022C9A
:1055B00007D10021F548FCF7D3FD0021F348FCF7A3
:1055C000D1FD3DE03CB9FF21EF48FCF7C9FD0021CA
:1055D000ED48FCF7C7FD012C07D1FF21EB48FCF794
:1055E000BBFD0021E948FCF7B9FD022C07D1FF21E2
:1055F000E648FCF7B5FD0021E448FCF7B3FD1FE0E9
:105600003CB90021E048FCF7ABFDFF21DE48FCF788
:10561000A9FD012C07D10021DC48FCF79DFDFF21ED
:10562000DA48FCF79BFD022C07D10021D748FCF794
:1056300097FDFF21D548FCF795FD01E000E000BF94
:1056400000BF70BD10B50821D148FBF73DFC28B95B
:1056500001220821CE48FBF748FC04E00022082183
:10566000CB48FBF742FC10BD38B505460C46E8B206
:105670008DF8000007208DF8010000208DF8020051
:105680008DF803406846FAF74AFF38BD38B504463E
:10569000002000908DF8004000231A466946BD485E
:1056A0000068FCF716FF38BD00B58BB00121C802B9
:1056B000FBF726FE01210420FBF722FE4FF4706069
:1056C000ADF8280018208DF82B0003208DF82A0053
:1056D0000AA9B148FBF758FBFF20ADF820000020D5
:1056E000ADF81C00ADF82200ADF81E0007A9A748D0
:1056F000FBF73EFF7020ADF80C000120ADF80E0066
:105700000020ADF812000220ADF8140003A99F4854
:10571000FBF76BFF08219D48FCF7B6FB03A99B48EC
:10572000FBF7A5FF08219948FCF7B7FB03A99748A9
:10573000FBF7EAFF08219548FCF7BCFB03A9934857
:10574000FCF72DF808219148FCF7BDFB01218F489B
:10575000FCF76AFB01218D48FCF772FA01218B48A6
:10576000FCF762FA01210220FBF7D7FD012110208E
:10577000FBF7C6FD01210846FBF7C2FD0121874862
:10578000FBF7D3FB4FF44070ADF8280018208DF8DC
:105790002B0003208DF82A000AA98148FBF7F4FAB0
:1057A000FF20ADF820000020ADF81C00ADF822006D
:1057B000ADF81E0007A97448FBF7DAFE7020ADF8BB
:1057C0000C000120ADF80E000220ADF8140003A972
:1057D0006D48FBF799FF03A96B48FBF7E0FF082131
:1057E0006948FCF767FB08216748FCF76CFB01215F
:1057F0006548FCF719FA01211020FBF781FD012112
:105800000846FBF77DFD3F20ADF8280048208DF8C5
:105810002B0003208DF82A000AA96148FBF7B4FA8F
:1058200000210220FBF7C6FB01210220FBF7C2FB8F
:1058300002210846FBF7BEFB03210220FBF7BAFB5F
:1058400004210220FBF7B6FB05210220FBF7B2FB87
:105850003F20019000208DF8080010208DF80900ED
:1058600001208DF80A0001A8FAF7D0FE06208DF875
:10587000000007208DF8010000208DF802000120B3
:105880008DF803006846FAF74AFE07208DF80000FD
:105890008DF8010000208DF8020001208DF8030032
:1058A0006846FAF73CFE08208DF8000007208DF8C6
:1058B000010000208DF8020001208DF803006846E9
:1058C000FAF72DFE09208DF8000007208DF8010061
:1058D00000208DF8020001208DF803006846FAF7D9
:1058E0001EFE0A208DF8000007208DF80100002020
:1058F0008DF8020001208DF803006846FAF70FFECC
:1059000017208DF8000007208DF8010000208DF889
:10591000020001208DF803006846FAF700FE01211D
:105920000820FBF7EDFC4FF44070ADF8280048204C
:105930008DF82B0003208DF82A000AA91448FBF7E4
:1059400023FA4FF440711248FBF7CBFA01210820EB
:10595000FBF7D6FC01210846FBF7D2FC01211148D8
:10596000FBF7E3FA0820ADF8280010208DF82B0093
:1059700003208DF82A000AA90548FBF705FA08213B
:105980000348FBF7B0FA0FE000040040002C014090
:10599000000C0140AC00002000080140000C1A007F
:1059A0000010014000023000FD4AFEA10020FEF779
:1059B0001FFF0BB000BD1CB50120FAF78DFE10B320
:1059C000FC4AFDA10020FEF713FF00210620FFF78F
:1059D0004BFEFC48006801900020009000236A46BE
:1059E00001A9F9480068FCF72DFE009838B14FF086
:1059F0008050F6490860BFF34F8FBFF36F8F0120CF
:105A0000FAF77BFE00BF1CBD1CB50220FAF764FE4E
:105A100018B3EF4AEFA10020FEF7EAFE00210720AD
:105A2000FFF722FEE7481430006801900020009044
:105A300000236A4601A9E4480068FCF703FE0098C9
:105A400038B14FF08050E1490860BFF34F8FBFF38A
:105A50006F8F0220FAF751FE00BF1CBD1CB5042059
:105A6000FAF73AFE18B3DE4ADEA10020FEF7C0FEC8
:105A700000210820FFF7F8FDD24828300068019087
:105A80000020009000236A4601A9CF480068FCF777
:105A9000D9FD009838B14FF08050CC490860BFF371
:105AA0004F8FBFF36F8F0420FAF727FE00BF1CBD96
:105AB0001CB50820FAF710FE18B3CD4ACDA100207E
:105AC000FEF796FE00210920FFF7CEFDBD483C30D1
:105AD000006801900020009000236A4601A9BA489E
