:020000040800F2
:10000000105D0020D504000887020008890200085E
:100010008D0200089102000895020008000000000F
:10002000000000000000000000000000CD010008FA
:100030009902000800000000110200089B0200085D
:10004000EF040008EF040008EF040008EF040008C4
:10005000EF040008EF040008954B0008E74B000888
:100060003B4C00088F4C0008E34C0008EF040008EC
:10007000EF040008EF040008EF040008EF04000894
:10008000EF040008EF040008EF040008EF04000884
:10009000EF040008EF040008EF040008374D0008E3
:1000A000EF040008EF040008EF040008EF04000864
:1000B000EF040008EF040008EF040008EF04000854
:1000C000EF040008EF040008EF040008EF04000844
:1000D000EF040008EF040008EF040008EF04000834
:1000E000EF040008EF040008EF040008EF04000824
:1000F000EF040008EF040008EF040008EF04000814
:10010000EF040008EF040008EF040008EF04000803
:10011000EF040008EF040008EF040008EF040008F3
:10012000EF040008EF040008EF040008EF040008E3
:1001300000F002F800F03AF80AA090E8000C8244BF
:100140008344AAF10107DA4501D100F02FF8AFF29C
:10015000090EBAE80F0013F0010F18BFFB1A43F0A5
:10016000010318472458000044580000103A24BFE7
:1001700078C878C1FAD8520724BF30C830C144BF0C
:1001800004680C607047000000230024002500264E
:10019000103A28BF78C1FBD8520728BF30C148BFEA
:1001A0000B6070471FB51FBD10B510BD05F055FBA6
:1001B0001146FFF7F7FF00F054F805F073FB03B4A6
:1001C000FFF7F2FF03BC05F07BFB0000224B196830
:1001D0000868B0E8F00F80F30988BFF36F8F4FF025
:1001E000000080F311884EF00D0E704700000000F3
:1001F00006480068006880F3088862B661B6BFF3FD
:100200004F8FBFF36F8F00DF00BF00BF08ED00E02E
:10021000EFF30980BFF36F8F0F4B1A6820E9F00FDF
:10022000106008B54FF0500080F31188BFF34F8F76
:10023000BFF36F8F02F012F94FF0000080F31188C6
:10024000BDE8084019680868B0E8F00F80F3098835
:10025000BFF36F8F704700BF28000020EFF30580C9
:10026000704708B54FF4407000F054F90020034681
:1002700002460146009004F033F805F077F902F0E9
:1002800044FA00BFFEE7704700BFFEE700BFFEE78D
:1002900000BFFEE700BFFEE7704710B502F051FB5C
:1002A000012801D003F066F910BD000038B50446FE
:1002B0000020009000F0B6FE012000F038FF7B48DF
:1002C000006800F002000090009802282BD1102056
:1002D00000F030FA022000F019FA2146002000F068
:1002E00029FF002000F043FF4FF4806000F048FF3A
:1002F000002000F04EFF012000F028FF00BF392051
:1003000000F0D3FE0028FAD0022000F022FF00BF48
:1003100000F028FF0828FBD1654800F084FF6448FE
:1003200000686449086038BD0CB500200190009059
:100330005E48006840F480305C49086000BF5B485C
:10034000006800F4003000900198401C0190009873
:1003500018B90198B0F5A06FF1D15448006800F4C5
:10036000003010B10120009001E0002000900098C2
:10037000012828D15048006840F010004E4908601C
:100380000846006820F0030008600846006808601E
:100390004648406845494860084640684860084605
:1003A000406848600846406820F0030048600846FE
:1003B000406840F00100486000BF3C48406800F0E1
:1003C0000C000428F9D10CBD10B5FFF7ADFF10BD2E
:1003D00010B53648006840F001003449086008460E
:1003E0004068364908403149486008460068344949
:1003F00008402E4908600846006820F48020086004
:100400000846406820F4FE0048604FF41F008860F2
:10041000FFF7DAFF4FF000602A49086010BD10B501
:10042000002100200022214B5B6803F00C0121B168
:10043000042906D0082928D107E0234B1D4C23604E
:1004400027E0214B1B4C236023E0184B5B6803F42F
:100450007010164B5B6803F48032022303EB90406C
:1004600022B91A4B4343134C23600DE00F4B5B68DA
:1004700003F4003323B1154B43430E4C236003E0D8
:10048000114B43430B4C236003E00F4B094C23609B
:1004900000BF00BF054B5B68C3F303130C4CE15C6A
:1004A000044B1B68CB40034C236010BD001002407E
:1004B000B400002000000020002002400000FFF8EF
:1004C000FFFFF6FE08ED00E000127A0000093D0093
:1004D000040000200948804709480047FEE7FEE77E
:1004E000FEE7FEE7FEE7FEE7FEE7FEE7FEE7FEE7E4
:1004F00004480549054A064B70470000D10300082F
:100500003101000810570020105D00201059002014
:100510001059002031490143314A1160704770B5CC
:10052000002100230F22C47804B32D4C246804F466
:10053000E064C4F5E064210AC1F10403CA404478D0
:1005400004FA03F18478144021430901254C06780C
:10055000A155047804F01F050124AC4005786D1105
:10056000AD0005F1E025C5F8004109E0047804F08C
:100570001F050124AC401C4D0678761145F8264035
:1005800070BD1A4A0A400243154B1B1F1A60704780
:1005900039B1134A121D12680243114B1B1D1A6018
:1005A00006E00F4A121D126882430D4B1B1D1A6094
:1005B0007047042808D14FF0E021096941F0040197
:1005C0004FF0E022116107E04FF0E021096921F0CE
:1005D00004014FF0E0221161704700000000FA05AD
:1005E0000CED00E000E400E080E100E080FFFF1F90
:1005F000002044490860091D0860091D0860091DA4
:10060000086041483F4914310860704700213D4966
:100610008279002A3AD00A46126803689A430B4648
:100620001A600A1D126803689A430B1D1A6002794A
:1006300011440A6803681A430A60324A0832126891
:1006400003689A432F4B08331A601A1D1268036817
:100650009A432C4B0C331A604279102A0ED11A1F80
:10066000126803681A43274B08331A601A1D126870
:1006700003681A43234B0C331A600DE02149427979
:1006800011440A6803681A430A6005E002791144BC
:100690000A6803689A430A6070470021016001718B
:1006A0000C21417100218171704716491031096890
:1006B0000143144A10321160704701460020114A6C
:1006C000143212680A400AB1012000E0002070478D
:1006D0000C49143108607047014600200022094B84
:1006E0001B6803EA0102074B14331B680B4013B16C
:1006F0000AB1012000E0002070470249143108606F
:100700007047000000040140FFFF0F000146002079
:10071000FE4A106800F03800084310607047FB493B
:10072000096821F00801F94A11601146096801437E
:1007300011607047F549096821F01001F34A116012
:1007400011460968014311607047F148EF4948605C
:10075000F04848607047EE48EC494860ED48486012
:100760007047EA48006940F08000E8490861704736
:10077000E648006940F08000E449086170470420C1
:10078000E249C96801F0010109B101200EE0DF4929
:10079000C96801F0040109B1022007E0DB49C9681A
:1007A00001F0100109B1032000E00420704700B5FA
:1007B00002460423FFF7E3FF034603E0FFF7DFFFF2
:1007C0000346521E012B01D1002AF7D102B905239D
:1007D000184600BD30B5044604254FF43020FFF71D
:1007E000E6FF0546042D17D1C848006940F0020015
:1007F000C649086108464461006940F0400008614C
:100800004FF43020FFF7D3FF0546C048006941F69A
:10081000FD710840BD490861284630BD10B504246B
:100820004FF43020FFF7C3FF0446042C16D1B7481D
:10083000006940F00400B54908610846006940F0CD
:10084000400008614FF43020FFF7B1FF0446AF4885
:10085000006941F6FB710840AC490861204610BDB3
:1008600000B502460423FFF78AFF034603E0FFF7C3
:1008700086FF0346521E012B01D1002AF7D102B98F
:100880000523184600BD10B504244FF43020FFF7AF
:10089000E7FF0446042C16D19C48006940F0040090
:1008A0009A4908610846006940F0400008614FF429
:1008B0003020FFF7D5FF04469448006941F6FB71EC
:1008C000084092490861204610BD00208F49C9693F
:1008D00001F0020109B1012000E00020704730B5AD
:1008E000A5250424FFF7F1FF00B100254FF43020C7
:1008F000FFF75DFF0446042C3AD1854883498860A0
:10090000844888600846006940F020000861084675
:10091000006940F0400008614FF43020FFF747FFC6
:100920000446042C1BD17948006941F6DF71084068
:10093000764908610846006940F010000861764871
:100940000580E002FFF733FF0446052C10D06F4806
:10095000006941F6EF7108406C49086108E0052C18
:1009600006D06A48006941F6EF710840674908619E
:10097000204630BD78B506460C4604250020009080
:10098000E802FFF714FF0546042D24D15F480069F3
:1009900040F001005D4908613480E802FFF707FF7D
:1009A0000546042D10D1B01C0090200C0099088041
:1009B000E802FFF7FCFE05465448006941F6FE7167
:1009C00008405249086106E05048006941F6FE714E
:1009D00008404E490861284678BD70B504460D466A
:1009E0000426F002FFF7E3FE0646042E11D1474825
:1009F000006940F00100454908612580F002FFF7D9
:100A0000D6FE06464148006941F6FE7108403F495E
:100A10000861304670BD70B505460E460424E002FC
:100A2000FFF7C5FE0446042C17D1394837498860C2
:100A3000384888600846006940F0100008612E8040
:100A4000E002FFF7B4FE0446052C06D02F480069EB
:100A500041F6EF7108402D490861204670BD2DE92F
:100A6000F04304464FF6FF763746B046B1460425BC
:100A7000E443E6B2C4F30727C4F307484FEA146916
:100A8000E802FFF794FE0546042D49D120481F498E
:100A90008860204888600846006940F010000861BE
:100AA000FF2E06D01C4808300680E802FFF77FFEC4
:100AB0000546042D08D1FF2F06D017480A300780BD
:100AC000E802FFF774FE0546042D0AD1B8F1FF0FC6
:100AD00007D011480C30A0F80080E802FFF767FE4D
:100AE0000546042D0AD1B9F1FF0F07D00A480E3090
:100AF000A0F80090E802FFF75AFE0546052D0FD03A
:100B00000248006941F6EF71084007E0002002400A
:100B100023016745AB89EFCD00F8FF1F66490861E7
:100B20002846BDE8F08330B5054604244FF4302054
:100B3000FFF73DFE0446042C41D160485E498860C1
:100B40005F4888600846006940F020000861084658
:100B5000006940F0400008614FF43020FFF727FEA5
:100B60000446042C22D15448006941F6DF71084044
:100B7000514908610846006940F0100008611DB144
:100B800000205049088002E0A5204E4908804FF41B
:100B90003020FFF70CFE0446052C10D046480069B3
:100BA00041F6EF7108404449086108E0052C06D081
:100BB0004148006941F6DF7108403F49086120461D
:100BC00030BDF0B505460E46174604243B483A4969
:100BD00088603B488860E002FFF7E9FD0446042C8A
:100BE00019D13548006940F010003349086147F0D9
:100BF000F800304328433349891C0880E002FFF79E
:100C0000D6FD0446052C06D02B48006941F6EF714D
:100C10000840294908612046F0BD2748C06980087E
:100C200070472548006A704700202349096801F091
:100C3000200109B1012000E00020704729B11E4ABF
:100C4000126902431C4B1A6104E01B4A1269824379
:100C5000194B1A61704701460020012908D1164A34
:100C6000D26902F001020AB1012008E0002006E08A
:100C7000114AD2680A400AB1012000E00020704702
:100C80000D49C860704704200B49C96801F0010193
:100C900009B101200EE00849C96801F0040109B159
:100CA000022007E00449C96801F0100109B10320DE
:100CB00000E0042070470000002002402301674547
:100CC000AB89EFCD00F8FF1F10B50446CC48844235
:100CD00008D10121042000F02DFB0021042000F0A8
:100CE00029FB46E0C748844208D10121082000F0D2
:100CF00021FB0021082000F01DFB3AE0C24884429D
:100D000008D10121102000F015FB0021102000F077
:100D100011FB2EE0BD48844208D10121202000F0C3
:100D200009FB0021202000F005FB22E0B8488442A6
:100D300008D10121402000F0FDFA0021402000F000
:100D4000F9FA16E0B348844208D10121802000F06E
:100D5000F1FA0021802000F0EDFA0AE0AE4884426A
:100D600007D10121801500F0E5FA0021A01500F05F
:100D7000E1FA10BD10B50121084600F0DBFA0021B0
:100D8000012000F0D7FA10BD2DE9F0410246002500
:100D90000026002000230024002791F803C00CF057
:100DA0000F0591F803C00CF0100CBCF1000F03D03C
:100DB00091F802C04CEA050591F800C0BCF1000FA3
:100DC00031D0146800202BE04FF0010C0CFA00F336
:100DD000B1F800C00CEA03069E4220D183004FF018
:100DE0000F0C0CFA03F7BC4305FA03FC4CEA0404AD
:100DF00091F803C0BCF1280F06D14FF0010C0CFA9A
:100E000000FCC2F814C00AE091F803C0BCF1480F1E
:100E100005D14FF0010C0CFA00FCC2F810C0401CC8
:100E20000828D1D31460B1F800C0BCF1FF0F34DD45
:100E3000546800202EE000F1080C4FF0010808FA79
:100E40000CF3B1F800C00CEA03069E4221D18300E6
:100E50004FF00F0C0CFA03F7BC4305FA03FC4CEA05
:100E6000040491F803C0BCF1280F05D100F1080C6F
:100E700008FA0CF8C2F8148091F803C0BCF1480FCE
:100E800007D100F1080C4FF0010808FA0CF8C2F87D
:100E90001080401C0828CED35460BDE8F0814FF686
:100EA000FF710180022181700421C17070470246E8
:100EB000002093680B400BB1012000E00020704738
:100EC0000146886880B2704702460020D3680B4014
:100ED0000BB1012000E0002070470146C86880B2D5
:100EE000704701617047416170470AB1016100E0DC
:100EF00041617047C16070474FF480320A4382619C
:100F00008161826182698269704702460020434B99
:100F100018684FF68073184040EA021008433F4BB0
:100F2000186070473E49C8617047F0B50A46002313
:100F300000240021002500F00046B6F1004F02D148
:100F4000364EF16901E0354E7168C0F3034583B256
:100F500000F44016B6F5401F08D121F070612F4E05
:100F6000766826F070662D4F7E6012E000F48016E1
:100F7000B6F5801F06D1032606FA05F4A14341F019
:100F8000706106E0460D360103FA06F6B14341F002
:100F9000706122B1460D360103FA06F6314300F0C6
:100FA0000046B6F1004F02D11C4EF16101E01B4E2C
:100FB0007160F0BD30B500228B071C0F0F2303FAC0
:100FC00004F2164B08338C1053F824309343134C1F
:100FD00008348D1044F8253023468C1053F8243003
:100FE0008C07240F00FA04F423430C4C08348D10B2
:100FF00044F8253030BD0A49DC31086070470000F4
:1010000000080140000C01400010014000140140A4
:1010100000180140001C0140002001400000014078
:1010200000002042DF48006840F00100DD49086010
:1010300008464068DC490840DA49486008460068CC
:10104000DA490840D74908600846006820F4802043
:1010500008600846406820F4FE0048604FF41F0016
:1010600088607047CF49096821F48031CD4A11600A
:101070001146096821F480211160B0F5803F03D04A
:10108000B0F5802F0ED106E0C649096841F48031E1
:10109000C44A116007E0C349096841F4A021C14A6C
:1010A000116000E000BF00BF704710B5014600228C
:1010B000002300204A11012A02D1BA4C236806E01D
:1010C000022A02D1B74C236A01E0B64C636A01F0F0
:1010D0001F02012494401C400CB1012000E00020BC
:1010E00010BD38B5002000900024002500BF31203D
:1010F000FFF7DBFF05460098401C00900098B0F514
:10110000A06F01D0002DF2D03120FFF7CEFF08B143
:10111000012400E00024204638BD01460020A14AF9
:10112000106820F0F80040EAC10010607047A04944
:1011300008607047024600209A4B586820F47C10E3
:1011400042EA01031843974B586070479849086674
:10115000704701460020934A506820F0030008437E
:10116000506070478F48406800F00C00704701469F
:1011700000208C4A506820F0F0000843506070470F
:1011800001460020874A506820F4E0600843506020
:10119000704701460020834A506820F4605040EABE
:1011A000C1005060704729B17E4A527A02437D4B9C
:1011B0005A7204E07B4A527A82437A4B5A727047E1
:1011C0007B49D8310860704701460020754A506855
:1011D00020F440400843506070470021714A20329B
:1011E0001170704A82F82010012802D004280AD118
:1011F00004E001216B4A2032117005E00521694AA3
:101200002032117000E000BF00BF704769490860DC
:1012100070476449096A0143624A1162704765492F
:1012200044390860704730B50021002200240023B3
:101230005C4D6D6805F00C0121B1042905D0082929
:1012400023D105E05C4D056022E05B4D05601FE0A9
:10125000544D6D6805F47012524D6D6805F480347C
:10126000022505EB92421CB9544D554305600BE035
:101270004C4D6D6805F400351DB1504D554305606A
:1012800002E04D4D5543056002E04B4D056000BF47
:1012900000BF444D6D6805F0F0010909484D6B5CD5
:1012A0000568DD4045603F4D6D6805F4E061090A61
:1012B000434D6B5C4568DD4085603A4D6D6805F4D3
:1012C0006051C90A3E4D6B5C4568DD40C560354DD7
:1012D0006D6805F44041890B3A4D6B5CC568B5FB00
:1012E000F3F5056130BD29B12E4A526902432D4BF9
:1012F0005A6104E02B4A526982432A4B5A61704773
:1013000029B1284A92690243264B9A6104E0254A92
:1013100092698243234B9A61704729B1214AD2696D
:101320000243204BDA6104E01E4AD26982431D4B1E
:10133000DA61704729B11B4AD2680243194BDA605F
:1013400004E0184AD2688243164BDA60704729B12C
:10135000144A12690243134B1A6104E0114A1269DC
:101360008243104B1A617047124940390860704738
:101370000F49C86470470B49C87170470948406AF3
:1013800040F0807007494862704701460020054AD6
:1013900092680A400AB1012000E00020704701492C
:1013A00088727047001002400000FFF8FFFFF6FE51
:1013B000000042428004424200127A0000093D00CF
:1013C000140000202400002000F1080141604FF0CB
:1013D000FF31816000F10801C160016100210160FD
:1013E000704700210161704742684A6093688B60D2
:1013F000936859609160086103685B1C03607047E3
:1014000010B502460B685C1C0CB9106907E002F1CC
:10141000080000E04068446824689C42FAD94468A7
:101420004C604C68A160886041600A611468641C6B
:10143000146010BD01460A69D1E901309860D1E914
:10144000010358605068884201D1886850600020CC
:1014500008611068401E10601068704770B505463E
:101460000E462C4602F069F8D4E90F12206801FB01
:10147000020060600020A0632068A060E06B401E56
:10148000226C216800FB0210E060FF2084F8440019
:1014900084F845009EB9206908B9012000E00020C9
:1014A000A8B904F1100001F0B1F980B14FF08050FB
:1014B000FC490860BFF34F8FBFF36F8F07E004F163
:1014C0001000FFF781FF04F12400FFF77DFF02F019
:1014D00043F8012070BD2DE9F04106460D46174640
:1014E0009846069C0DB9246000E02760E6632564F9
:1014F00001212046FFF7B2FF0020A064BDE8F08183
:101500002DE9F84307460D4690460DB9002601E047
:1015100007FB05F606F14C0001F041FF044644B11B
:1015200004F14C0943464A46294638460094FFF7E1
:10153000D2FF2046BDE8F8832DE9F04104460F466E
:1015400015464FF00008A66B206C40B9206860BBC0
:10155000606801F07BFA80460020606025E07DB97C
:101560003946226CA06804F0FEF8216CA06808449B
:10157000A060D4E90110884217D32068A06014E06D
:101580003946226CE06804F0EEF8216CE068401AFD
:10159000E0602168E068884203D2216C6068401AEC
:1015A000E060022D01D106B1761E701CA06340469A
:1015B000BDE8F0812DE9F3410D460098846C0027C9
:1015C000A06BE16B88421BD294F945602A466946BC
:1015D0002046FFF7B1FF0746701C60B9606A08B982
:1015E000012000E0002050B904F1240001F00EF9C0
:1015F00028B1012703E0701C40B284F8450000BF09
:101600003846BDE8FC8170B5044601F096FF94F9B8
:1016100045501AE0A06C38B100212046FFF7CAFF00
:1016200088B101F087F90EE0606A08B9012000E096
:10163000002038B904F1240001F0E8F818B101F0F5
:1016400079F900E003E0681E45B2002DE2DC00BF3E
:10165000FF2084F8450001F07FFF01F06EFF94F950
:10166000445010E0206908B9012000E0002048B98A
:1016700004F1100001F0CAF808B101F05BF9681E2E
:1016800045B200E001E0002DECDC00BFFF2084F853
:10169000440001F061FF70BD70B5054601F04DFFDB
:1016A000A86BE96B884201D1012400E0002401F01D
:1016B00053FF204670BD2DE9FF4383B0074688469F
:1016C0001D464FF000093C4600BF01F036FFA06BFD
:1016D000E16B884201D3022D38D12A46414620468B
:1016E000FFF72AFF0646A06C68B129462046FFF79F
:1016F00061FF28B34FF080506A490860BFF34F8FF5
:10170000BFF36F8F1CE0606A08B9012000E0002081
:1017100068B904F1240001F079F888B14FF08050E5
:1017200060490860BFF34F8FBFF36F8F08E03EB191
:101730004FF080505B490860BFF34F8FBFF36F8F4E
:1017400001F00AFF012007B0BDE8F083059818B941
:1017500001F002FF0020F6E7B9F1000F04D101A863
:1017600001F0B7F84FF0010901F0F6FE00F05EFD60
:1017700001F0E3FE94F94400401C10B9002084F805
:10178000440094F94500401C10B9002084F845003D
:1017900001F0E2FE05A901A801F0A2F8F0B9204687
:1017A000FFF77AFFA0B104F11000059900F0FAFFED
:1017B0002046FFF728FF00F06EFC002885D14FF08F
:1017C000805038490860BFF34F8FBFF36F8F7CE7BD
:1017D0002046FFF718FF00F05EFC76E72046FFF793
:1017E00012FF00F058FC0020ADE710B504464CB1E4
:1017F000002060602060E06000231A461946204601
:10180000FFF759FF10BD2DE9F041044601260027DE
:10181000224600210120FFF773FE05462846FFF708
:10182000E4FF2846BDE8F0812DE9F05F06468A46D0
:1018300015461F46344600BF5021EFF3118081F357
:101840001188BFF34F8FBFF36F8F00BF8146A06B2E
:10185000E16B884201D3022F2ED194F945B03A466C
:1018600051462046FFF768FE0BF10100E0B9A06C7D
:1018700040B139462046FFF79DFED0B1CDB10120E1
:10188000286016E0606A08B9012000E0002080B9F5
:1018900004F1240000F0BAFF58B155B101202860CE
:1018A00007E0000004ED00E00BF1010040B284F815
:1018B00045004FF0010801E04FF0000800BF89F338
:1018C000118800BF4046BDE8F09F2DE9F04706466D
:1018D0000D46344600BF5021EFF3118081F311888B
:1018E000BFF34F8FBFF36F8F00BF8046D4F838909F
:1018F000E06B484528D994F945A009F10100A0639F
:101900000AF10100C8B9A06C40B100212046FFF7E0
:1019100051FEB8B1B5B10120286013E0606A08B982
:10192000012000E0002068B904F1240000F06EFFFF
:1019300040B13DB10120286004E00AF1010040B24D
:1019400084F84500012700E0002700BF88F31188D4
:1019500000BF3846BDE8F08770B5054601F0EDFDE3
:10196000A86B08B9012400E0002401F0F5FD204631
:1019700070BD70B504460D46206C70B1216CE068F6
:101980000844E0606168E068884201D32068E06054
:101990002846226CE16803F0E6FE70BD2DE9FF47A2
:1019A00082B0054689461E464FF0000A2C4600BF0D
:1019B00001F0C3FDD4F83880B8F1000F3BD0E768E0
:1019C00049462046FFF7D5FFDEB9A8F10100A06324
:1019D000206810B901F083F86060206908B901201F
:1019E00000E0002008BB04F1100000F00FFFE0B1A0
:1019F0004FF08050C2490860BFF34F8FBFF36F8F25
:101A000013E0E760606A08B9012000E0002060B9D7
:101A100004F1240000F0FAFE38B14FF08050B849CC
:101A20000860BFF34F8FBFF36F8F01F095FD01206A
:101A300006B0BDE8F087049818B901F08DFD0020CC
:101A4000F6E7BAF1000F04D1684600F042FF4FF00C
:101A5000010A01F081FD00F0E9FB01F06EFD94F94F
:101A60004400401C10B9002084F8440094F945005B
:101A7000401C10B9002084F8450001F06DFD04A958
:101A8000684600F02DFF40BB2046FFF765FFF0B130
:101A9000206830B901F051FD606800F05EFF01F090
:101AA0005BFD04F12400049900F07CFE2046FFF762
:101AB000AAFD00F0F0FA00287FF47AAF4FF08050D2
:101AC0008F490860BFF34F8FBFF36F8F70E72046D9
:101AD000FFF799FD00F0DFFA6AE72046FFF793FD74
:101AE00000F0D9FA2046FFF737FF0028EED000209B
:101AF0009EE72DE9F05F05468A4616462C4600BF54
:101B00005021EFF3118081F31188BFF34F8FBFF3A2
:101B10006F8F00BF8046D4F83890B9F1000F21D004
:101B200094F944B051462046FFF723FFA9F1010084
:101B3000A0630BF1010070B9206908B9012000E031
:101B4000002068B904F1100000F060FE40B13EB121
:101B50000120306004E00BF1010040B284F8440041
:101B6000012700E0002700BF88F3118800BF384636
:101B7000BDE8F09F2DE9F047054689462C4600BF99
:101B80005021EFF3118081F31188BFF34F8FBFF322
:101B90006F8F00BF0746A06B48B1D4F80C80494650
:101BA0002046FFF7E6FEC4F80C80012600E0002680
:101BB00000BF87F3118800BF3046BDE8F08770B5DD
:101BC000044601F0BAFCA56B01F0C6FC284670BDC6
:101BD00070B50446254601F0B0FCD5E90E10461A52
:101BE00001F0BAFC304670BD0146886B704770B595
:101BF00004462546284601F030FC70BD01468A6B3C
:101C00000AB9012000E00020704701468A6BCB6BC7
:101C10009A4201D1012000E0002070472DE9F041F7
:101C200005460E4617462C4601F087FC94F9440001
:101C3000401C10B9002084F8440094F94500401C71
:101C400010B9002084F8450001F086FCA06B28B98B
:101C50003A46314604F1240000F0C6FD2046FFF765
:101C6000D2FCBDE8F08170B5044600220421204674
:101C7000FFF746FC0546284670BD70B504460E4683
:101C800001F05BFCA06C08B1002505E0A06B08B179
:101C9000002501E0A664012501F05EFC284670BD28
:101CA0002DE9F04105460F462E46B06CB84201D0F2
:101CB00000240AE0B06B08B1002406E001F03DFC0E
:101CC0000020B06401F048FC01242046BDE8F0810A
:101CD00038B505460C460020009000232246694690
:101CE0002846FFF75BFE009838BD38B50446002053
:101CF0000090002269462046FFF7FBFE009838BDA1
:101D000004ED00E010B5002407E004EB8401FE4A76
:101D100002EB8100FFF758FB641C082CF5D3FB484D
:101D2000FFF752FBFA48FFF74FFBFA48FFF74CFB6F
:101D3000F948FFF749FBF948FFF746FBF348F84934
:101D40000860F348F749086010BD10B5044601F07B
:101D5000F4FBF5480068401CF3490860F34800684C
:101D600040B9F24804600846006801280DD1FFF729
:101D7000C9FF0AE0EE48006838B9EC480068C06A5C
:101D8000E16A884201D8E9480460EA480068401CDA
:101D9000E849086094F82C1001208840E649096859
:101DA0000843E5490860E16A01EB8101D64A02EB8C
:101DB0008100211DFFF718FB01F0CEFBDC48006815
:101DC00068B1DA480068C06AE16A884207D24FF019
:101DD0008050DA490860BFF34F8FBFF36F8F10BD9B
:101DE0002DE9FF5F80460F469146DDE90E6A109CA3
:101DF000A9F10100216B01EB800B2BF0070B0025F3
:101E000007E0795D04F134004155785D00B902E0E6
:101E10006D1C102DF5D300BF002143200155082E65
:101E200000D30726E66266640020A064201DFFF749
:101E3000D8FA04F11800FFF7D4FA2461C6F10800BB
:101E4000A06164620020E06484F850004146584676
:101E5000039A01F040FB2060BAF1000F01D0CAF8EC
:101E60000040BDE8FF9F2DE9FF4F85B080468946C1
:101E70001746DDE912ABB80001F091FA064656B1FB
:101E8000542001F08CFA04460CB1266304E030467D
:101E900001F0E3FA00E000247CB10020CDE900ABC2
:101EA000CDE902403A4649464046089BFFF798FF75
:101EB0002046FFF74AFF012501E04FF0FF35284695
:101EC00009B0BDE8F08F96490968096809B9012190
:101ED00000E0002121B14FF0FF31994A116006E086
:101EE0008F490968C968C868954A41681160704798
:101EF00010B50446206B01F0B0FA204601F0ADFAAF
:101F000010BD70B5054601F018FB15B9874800688B
:101F100000E028460446201DFFF78CFA78B9E06AF5
:101F200000EB8000784951F8200040B994F82C105B
:101F3000012088408049096881437F480160A06A88
:101F400018B104F11800FFF775FA7A480068401CD0
:101F50007849086075480068844209D1211D6E489F
:101F6000FFF742FA77480068401C7649086009E0AC
:101F70006D480068401E6C4908602046FFF7B8FFB6
:101F8000FFF7A1FF01F0E8FA6948006858B1674817
:101F90000068844207D14FF0805068490860BFF361
:101FA0004F8FBFF36F8F70BD2DE9F041002766485A
:101FB0000068002863D165480068451C63480560D7
:101FC0008DB95748D0F800805648006854490860D9
:101FD0005448C0F800805E480068401C5C490860B6
:101FE000FFF771FF00BF5648006885423BD300BF32
:101FF0004B480068006808B9012000E0002020B1CB
:102000004FF0FF304E4908602CE045480068C0683A
:10201000C4686668B54202D24948066022E0201DC5
:10202000FFF708FAA06A18B104F11800FFF702FAE6
:1020300094F82C10012088403F49096808433E4924
:102040000860E16A01EB81012F4A02EB8100211D4A
:10205000FFF7CAF93549E06A0968C96A8842C7D3F7
:102060000127C5E700BF31480068C06A00EB800067
:10207000254951F82000012800D9012704E03548FE
:102080000068401C334908603348006800B10127EC
:102090003846BDE8F08170B50024002601F04DFA05
:1020A00029480068401E2849086008460068002842
:1020B0007AD11D480068002876D024E01548C06811
:1020C000C46804F11800FFF7B5F9201DFFF7B2F955
:1020D00094F82C10012088401749096808431649D4
:1020E0000860E16A01EB8101074A02EB8100211DD2
:1020F000FFF77AF90D49E06A0968C96A884202D394
:1021000001201549086029E0C8000020680100206E
:102110007C01002090010020A4010020B8010020D3
:102120002C00002030000020380000202800002073
:1021300044000020540000204000002004ED00E096
:102140005800002034000020600000203C000020E7
:1021500050000020480000204C000020F948006892
:1021600008B9012000E000200028A7D00CB1FFF73B
:10217000AAFEF548056865B100BFFFF715FF10B16D
:102180000120F24908606D1E002DF6D10020EE49B5
:102190000860EE48006838B101263007EC49086055
:1021A000BFF34F8FBFF36F8F01F0D6F9304670BD8C
:1021B0002DE9F04105460E46E6480768E648006806
:1021C000001DFFF737F950B9E348006890F82C106C
:1021D00001208840E14909688143E0480160681CAA
:1021E00038B936B1DC480168091DDD48FFF7FCF855
:1021F0001AE07C19D84800684460BC4207D2D6482F
:102200000168091DD7480068FFF7FAF80CE0D248CA
:102210000168091DD4480068FFF7F2F8D348006848
:10222000844201D2D1480460BDE8F081D048006802
:10223000401CCF49086070472DE9F04704468846A6
:102240004FF00009FFF7F2FFC2480668206800EB74
:1022500008052068B04207D92068A8420BD9B542CA
:1022600009D94FF0010906E02068A84201D8B5421B
:1022700001D94FF001092560B9F1000F03D0A81B67
:102280000021FFF795FFFFF706FF07463FB94FF024
:102290008050AF490860BFF34F8FBFF36F8FBDE829
:1022A000F08770B50446002544B1FFF7BFFF002159
:1022B0002046FFF77DFFFFF7EEFE05463DB94FF0E4
:1022C0008050A3490860BFF34F8FBFF36F8F70BD7D
:1022D0002DE9F041064637469F480068874201D104
:1022E00000241EE001F029F97D6901F035F99E48CE
:1022F0000068854203D09B480068854201D10224D2
:102300000FE09748854205D1B86A08B9032408E070
:10231000022406E09748854200D00DB9042400E06D
:1023200001242046BDE8F08170B5044601F005F9AE
:1023300014B98948006800E020460646F56A01F0B5
:102340000BF9284670BD70B5024600BF5025EFF36B
:10235000118485F31188BFF34F8FBFF36F8F00BFD8
:10236000214612B97C4C246800E014462346D86A02
:1023700000BF81F3118800BF70BD2DE9F047804692
:102380000D464FF00009082D00D3072501F0D5F8C0
:10239000B8F1000F02D17048006800E040460446E2
:1023A000666CAE4256D0B5420BD96B480068844289
:1023B0000DD069480068C06AA84208D84FF00109EA
:1023C00005E065480068844201D14FF00109E76AE1
:1023D000E16A606C884200D1E5626564A06900F042
:1023E000004010B9C5F10800A06107EB8701624AFF
:1023F00002EB81016069884201D1012000E00020E8
:10240000E0B1201DFFF716F830B90120B84053495C
:10241000096881435148016094F82C1001208840DC
:102420004E49096808434D490860E16A01EB8101A2
:10243000514A02EB8100211DFEF7D6FFB9F1000FD2
:1024400007D04FF0805042490860BFF34F8FBFF371
:102450006F8F00BF01F080F8BDE8F0874448006846
:1024600018B10120394908601DE000203749086093
:102470003A480068B0FA80F0C0F11F0101EB810218
:102480003D4B03EB820042685268426000F1080253
:102490004368934202D14268526842604268D268FF
:1024A0002D4B1A6000BF704770B5054601F045F826
:1024B00015B92948006800E028460446201DFEF7AB
:1024C000B9FF78B9E06A00EB80002B4951F8200091
:1024D00040B994F82C1001208840204909688143B4
:1024E0001E480160A06A18B104F11800FEF7A2FFAF
:1024F000211D1B48FEF778FF01F02EF81F480068E9
:1025000028B101F01AF8FFF7DEFC01F025F81248B7
:102510000068844238D11948006840B14FF08050BB
:102520000B490860BFF34F8FBFF36F8F2CE00C484F
:10253000006813490968884224D1002006490860D0
:1025400022E0000090010020480000204C00002004
:1025500004ED00E03C0000202800002040000020A6
:10256000B8010020300000202C000020580000207E
:1025700060000020A4010020C800002044000020CA
:1025800038000020FFF76AFF70BD10B5014600203B
:102590000A46FE4C5369A34201D1012300E0002307
:1025A00073B1FB4C936AA34201D1012300E00023E5
:1025B00033B9936A0BB9012300E0002303B1012072
:1025C00010BD70B505462C4674B3F24800688442CD
:1025D0002AD000F0B2FF2046FFF7D7FF10B3201D2E
:1025E000FEF728FF94F82C1001208840EA4909687A
:1025F0000843E9490860E16A01EB8101E74A02EB1F
:102600008100211DFEF7F0FEE249E06A0968C96A0F
:10261000884207D34FF08050E1490860BFF34F8FE5
:10262000BFF36F8F00F098FF70BD2DE9F0410646B3
:102630000027344600BF5021EFF3118081F3118849
:10264000BFF34F8FBFF36F8F00BF05462046FFF7E4
:102650009CFF20B3D3480068E0B9CE49E06A09681E
:10266000C96A884200D30127201DFEF7E3FE94F8D3
:102670002C1001208840C84909680843C6490860F1
:10268000E16A01EB8101C54A02EB8100211DFEF7E1
:10269000ABFE04E004F11801BD48FEF7A5FE00BF43
:1026A00085F3118800BF3846BDE8F08170B523E09E
:1026B000FFF7BCFDBC48006808B9012000E000201D
:1026C0000546FFF7E8FCBDB900F037FFB648C06823
:1026D000C468201DFEF7AEFEB4480068401EB34932
:1026E0000860B3480068401EB149086000F034FF3C
:1026F0002046FFF7FDFB00BFAD4800680028D7D19A
:1027000070BD00BFFFF7D2FFFCE71CB5A948002150
:102710000B468022CDE90010A7A1A948FFF7A3FB33
:102720000446012C02D100F04CFD0446012C14D1CA
:1027300000BF502080F31188BFF34F8FBFF36F8F1E
:1027400000BF4FF0FF309F49086001209E4908609C
:1027500000209E49086000F0DAFE1CBD10B500BFE5
:10276000502080F31188BFF34F8FBFF36F8F00BFEE
:1027700000209549086000F0DFFE10BD934908680D
:1027800070470021914A1068704788480068704778
:10279000014611B97F48006800E00846024602F190
:1027A0003400704770B505460C467A480168183108
:1027B0002846FEF725FE01212046FFF7F9FC70BDF3
:1027C00070B506460C46154644F00040714909684C
:1027D00088617048016818313046FEF705FE012116
:1027E0002846FFF7E5FC70BD70B506460D46144659
:1027F0006848016818313046FEF7F6FD0CB14FF01D
:10280000FF3521462846FFF7D3FC70BD70B506465C
:10281000F068C46804F11800FEF70CFE6148006817
:10282000A8B9201DFEF706FE94F82C100120884060
:1028300059490968084358490860E16A01EB810178
:10284000564A02EB8100211DFEF7CEFD04E004F1A3
:1028500018014F48FEF7C8FD4E49E06A0968C96A89
:10286000884204D9012501205949086000E000256B
:10287000284670BD2DE9F04105460F4647F000405F
:102880002860EC682846FEF7D5FD201DFEF7D2FD36
:1028900094F82C10012088403F49096808433E49BC
:1028A0000860E16A01EB81013C4A02EB8100211DD5
:1028B000FEF79AFD3749E06A0968C96A884204D977
:1028C000012601204249086000E000263046BDE8AC
:1028D000F0814049096801603C49096841607047DE
:1028E00070B504460D4600F028FE38480268286896
:1028F000401C08B9002619E036492068096888425A
:1029000004D06068904201D801260FE06068101A78
:102910002968884209D228686168511A401A2860DB
:102920002046FFF7D6FF002600E0012600F014FE47
:10293000304670BD01202649086070471549086877
:1029400070472149096809B9012005E0154909685E
:1029500009B9022000E00020704770B505462C46FA
:10296000002D72D00B49E06A0968C96A88426CD2AE
:10297000A06900F0004028B906480068C06AC0F1AC
:102980000800A061E16A01EB810125E0B8010020A7
:10299000900100202800002040000020C8000020F6
:1029A00004ED00E060000020A401002038000020B9
:1029B000340000205C00002049444C450000000029
:1029C0000327000858000020440000203C0000209D
:1029D0004C00002050000020FE4A02EB810160699B
:1029E000884201D1012000E0002050B3201DFEF7F5
:1029F00021FD78B9E06A00EB8000F64951F820002B
:102A000040B994F82C1001208840F34909688143AB
:102A1000F1480160F1480068C06AE06294F82C1047
:102A200001208840EC4909680843EB490860E16AE5
:102A300001EB8101E74A02EB8100211DFEF7D4FC86
:102A400003E0E6480068C06AE06270BD70B5054604
:102A50002C460026ADB3A06C401EA064616CE06AF9
:102A600088422ED0A06C60BB201DFEF7E3FC78B935
:102A7000E06A00EB8000D74951F8200040B994F893
:102A80002C1001208840D44909688143D248016054
:102A9000606CE062E06AC0F10800A06194F82C105C
:102AA00001208840CC4909680843CB490860E16AA5
:102AB00001EB8101C74A02EB8100211DFEF794FC66
:102AC0000126304670BDC54909688869C34909684F
:102AD000C96AC1F10801C14A126891617047BF48D3
:102AE000006830B1BD49096801F14800896C491C92
:102AF0000160BA480068704770B506460D4600F0A0
:102B00001CFDB6480068C06C88B90120B34909684B
:102B100081F850005DB101212846FFF749FB4FF0D5
:102B20008050AF490860BFF34F8FBFF36F8F00F045
:102B300013FD00F002FDA9480068C46C4CB126B139
:102B40000020A6490968C86403E0601EA34909681B
:102B5000C8640020A149096881F8500000F0FCFC1D
:102B6000204670BD2DE9F0410746884614461D46B3
:102B700000F0E3FC9948006890F85000022818D053
:102B80009649096801F14C00C96CB9430160012004
:102B90009249096881F850005DB101212846FFF78C
:102BA00007FB4FF080508E490860BFF34F8FBFF393
:102BB0006F8F00F0D1FC00F0C0FC1CB187480068AA
:102BC000C06C20608548006890F85000012801D151
:102BD000002608E08149096801F14C00C96C21EA2E
:102BE00008010160012600207C49096881F8500035
:102BF00000F0B2FC3046BDE8F0812DE9F047814697
:102C00000D4616461F464FF0010A4C4600F095FC53
:102C10000FB1E06C386094F85080022084F85000C6
:102C2000052E17D2DFE806F01503070B0D00E06C48
:102C30002843E0640EE0E06C401CE0640AE0E564D8
:102C400008E0B8F1020F01D0E56401E04FF0000A9E
:102C500000E000BF00BFB8F1010F22D1201DFEF738
:102C6000E9FB94F82C10012088405B49096808436F
:102C700059490860E16A01EB8101564A02EB810083
:102C8000211DFEF7B1FB5549E06A0968C96A88420F
:102C900007D94FF0805052490860BFF34F8FBFF300
:102CA0006F8F00F059FC5046BDE8F0872DE9F84FD2
:102CB00082460D4616461F46DDF828B001200090DA
:102CC000544600BF5021EFF3118081F31188BFF308
:102CD0004F8FBFF36F8F00BF81460FB1E06C38603C
:102CE00094F85080022084F85000052E17D2DFE8B7
:102CF00006F01503070B0D00E06C2843E0640EE0BE
:102D0000E06C401CE0640AE0E56408E0B8F1020F02
:102D100001D0E56401E00020009000E000BF00BFAA
:102D2000B8F1010F2DD12F480068A8B9201DFEF77A
:102D300081FB94F82C10012088402749096808433A
:102D400025490860E16A01EB8101224A02EB81001A
:102D5000211DFEF749FB04E004F118012248FEF7AB
:102D600043FB1E49E06A0968C96A884209D9BBF178
:102D7000000F03D00120CBF8000002E001201B4926
:102D8000086000BF89F3118800BF0098BDE8F88F84
:102D90002DE9F04105460E462C4600BF5021EFF3C9
:102DA000118081F31188BFF34F8FBFF36F8F00BF86
:102DB000074694F85080022084F85000E06C401CD4
:102DC000E064B8F1010F3AD10648006828BB201D25
:102DD0000EE00000C8000020400000202800002075
:102DE00004ED00E060000020900100204C00002075
:102DF000FEF720FB94F82C10012088401F49096839
:102E000008431E490860E16A01EB81011C4A02EB9C
:102E10008100211DFEF7E8FA04E004F118011948C9
:102E2000FEF7E2FA1849E06A0968C96A884206D9D9
:102E300016B10120306002E001201449086000BF93
:102E400087F3118800BFBDE8F08170B5054615B95C
:102E50000D48006800E02846064600F06EFB96F834
:102E60005000022804D1002086F85000012400E020
:102E7000002400F071FB204670BD000040000020DF
:102E8000C800002090010020280000204C000020F5
:102E90002DE9F04104460D4616461F464FF0000846
:102EA00065602461B5420CD8F01BA169884202D349
:102EB0004FF0010811E0211DF8480068FEF7A0FA64
:102EC0000BE0BE4204D2BD4202D34FF0010804E041
:102ED000211DF3480068FEF793FA4046BDE8F081F3
:102EE0002DE9FE4305460C4616461F46DDF82880B0
:102EF0004FF00009EB48006810B30094019602956A
:102F0000062C15DAFFF71DFD022808D100234246E2
:102F10006946E4480068FEF7CEFB814610E00023D6
:102F20001A466946DF480068FEF7C5FB814607E0A0
:102F300000233A466946DB480068FEF775FC814687
:102F40004846BDE8FE832DE9F84326E0D4480068F2
:102F5000C0680568D2480068C068C468201DFEF7D4
:102F600069FA2046616A8847E069012815D1A0699D
:102F70004619AE4207D966602461211DC848006821
:102F8000FEF73EFA09E0002003462A46014600907B
:102F90002046FFF7A5FF804600BFC14800680068D3
:102FA00008B9012000E000200028CFD0BC48076805
:102FB000BA480068BA490860B8480760BDE8F883B5
:102FC00070B50446FFF7DAFB0546B748006885424E
:102FD00004D2FFF7B8FF0120206001E0002020604C
:102FE000B1480560284670BD70B586B04DE00398C5
:102FF00000284ADB059C606908B9012000E0002038
:1030000010B9201DFEF716FA02A8FFF7D9FF0546F2
:1030100003980A2837D2DFE800F009050725273290
:103020000608262800BF00BF00BF00BF0498A269A1
:10303000811803462A462046FFF72AFF88B120461A
:10304000616A8847E06901280BD10020009004984C
:10305000A1694218002319462046FFF741FF0646A2
:1030600000BF11E000BF0FE000BF0498A061A0699D
:1030700041192B462A462046FFF70AFF04E0204666
:1030800000F0EBF900E000BF00BF00231A4603A9DF
:1030900084480068FEF782FC0028A8D106B070BD05
:1030A000F8B505460E467E480068C068C468201D15
:1030B000FEF7C0F9E069012811D1A06941192B463A
:1030C00032462046FFF7E4FE48B1002003462A4678
:1030D000014600902046FFF703FF074600BF204649
:1030E000616A8847F8BDF8B505460C46FFF79EF8BB
:1030F0006846FFF765FF0646009820BB44B9B54215
:1031000006D8FEF7C8FF31462846FFF7C9FF1CE086
:103110003CB162480068006808B9012000E0002066
:103120000446A91B22465F480068FEF777FDFEF7BC
:10313000B2FF50B94FF080505C490860BFF34F8F29
:10314000BFF36F8F01E0FEF7A6FFF8BD0146544ABA
:10315000126812680AB9012200E000220A600A68B7
:1031600022B94F4A1268D268106800E00020704708
:1031700008B500BF6846FFF7E9FF044620460099FE
:10318000FFF7B1FFFFF730FFF4E710B500F0D5F916
:103190004448006890B94648FEF716F94548FEF7DE
:1031A00013F943483E49086042483C490860002200
:1031B0000C210A20FEF7A4F93A49086000F0CCF986
:1031C00010BD1CB50024FFF7E0FF3648006858B179
:1031D0003948072100234FF48072CDE9001037A150
:1031E0003848FEF740FE044620461CBD2DE9F04756
:1031F00005460E4617469846DDE908945CB1FFF790
:10320000C4FF2560A661E761C4F82080C4F824905B
:10321000201DFEF7E6F8BDE8F0872DE9FC470546DE
:103220000E4617469846DDF82890282000F0B7F89B
:1032300004463CB143463A4631462846CDE900941F
:10324000FFF7D4FF2046BDE8FC871B4800687047A5
:1032500001460A469069704701460A465068704721
:1032600001460A461068704770B50446264600F0CD
:1032700064F9706908B9012000E0002080F00105C0
:1032800000F06AF9284670BD70B50446264600F085
:1032900054F9356A00F060F9284670BD68000020D6
:1032A000640000206C0000207400002004ED00E0A9
:1032B000CC010020E001002070000020546D72203D
:1032C000537663007131000870B504460D462646FA
:1032D00000F033F9356200F03FF970BD10B50146DA
:1032E000714800E0006803688B42FBD302464368E4
:1032F00013448B4204D143684C6823444360014625
:103300000A464B6813440468A34211D1674C036812
:103310002468A34208D04B680468646823444B6067
:1033200003681B680B6005E0604B1B680B6001E0E5
:1033300003680B60884200D0016010BD30B54FF4C7
:10334000A0435B4800F007042CB1C01D20F007002B
:10335000574C041B1B1B0246534C22600024524D49
:103360006C60D018083820F00700504C2060002412
:103370004E4D2D686C604D4D2D682C601146441AE1
:103380004C604A4C24680C604A4D4C682C604A4D95
:103390004C682C604FF00044484D2C6030BD2DE946
:1033A000F04105464FF00008FEF740FF3F48006837
:1033B00008B9FFF7C3FF414800682840002847D1FB
:1033C00045B1083505F0070020B105F00700C0F150
:1033D00008000544002D3BD037480068854237D8A7
:1033E000314E3046046801E0264624686068A842F1
:1033F00002D220680028F7D12C480068844227D0E8
:10340000306800F10808206830606068401B1028B0
:1034100007D967196068401B786065603846FFF718
:103420005DFF254960680968081A23490860084655
:10343000006820490968884203D21F4800681D4976
:1034400008601E49606809680843606000202060C9
:10345000FEF721FE4046BDE8F08170B506463546D0
:10346000D6B1083D2C46154960680968084098B1F6
:10347000206888B911496068096888436060FEF770
:10348000D5FE0D496068096808440B49086020466C
:10349000FFF724FFFEF7FFFD70BD07480068704787
:1034A00004480068704770477800002080000020C2
:1034B000F401002088000020840000208C000020FF
:1034C00000BF502080F31188BFF34F8FBFF36F8F81
:1034D00000BF00BFFEE7001F4FF080730360001FB6
:1034E00021F001030360001F2E4B036014380260BB
:1034F000203870472C4800684FF47A71B0FBF1F027
:10350000401E4FF0E021486107200861704710B568
:103510002648006840F470002449086008460068A6
:1035200040F070400860FFF7E5FF00202049086088
:10353000FCF75EFE002010BD704700BF502080F3F6
:103540001188BFF34F8FBFF36F8F00BF184800681B
:10355000401C17490860704715480068401E144910
:1035600008600846006820B9002080F3118800BF79
:1035700000BF704710B500BF502080F31188BFF323
:103580004F8FBFF36F8F00BFFEF70EFD20B14FF0DE
:10359000805006491C39086000BF002080F3118864
:1035A00000BF10BDC13400080000002020ED00E085
:1035B0009000002070B504460E46A568681C61683E
:1035C000814206D320684655681CA060E068401C14
:1035D000E060D4E9011088420DD1A2682168206919
:1035E00000F0C9FCA168884203D04FF0FF30E060D2
:1035F00001E00020A06070BD2DE9FC5F8046894697
:1036000015461E460C9CCDF804900127BB4605E0EC
:103610000198B0FBF5F001900BF1010B0198A84265
:10362000F6D25E4500D9B3460D9800F00100D0B93E
:10363000CCB10D9800F00200022803D116B9302059
:10364000009001E02020009009E0641E40460099AF
:10365000FFF7B0FFD8F80C00002800DA02E00CB148
:10366000A345F2D300BFD8F80C00002835DB09E0F1
:10367000012E01D9761E04E0B9FBF7FAAA4500D263
:1036800001E06F43F4E700BF00BFB9FBF7FA0AFBA4
:103690001799D94810F80A104046FFF78BFFD8F861
:1036A0000C00002800DA03E0B7FBF5F7002FECD19F
:1036B00000BF0D9800F0010078B174B109E0641EFC
:1036C00020214046FFF776FFD8F80C00002800DAEA
:1036D00002E00CB1A345F2D300BFBDE8FC9F2DE989
:1036E000FC5F06460F4692469846DDE90C45002FE2
:1036F00001DA784200E0384683464FF0010903E0E2
:103700009BFBFAFB09F10109D345F9DAC84500D959
:10371000C14634B1002F03DB05F00400042800D1BA
:10372000641E05F0020010B1B8F1000F11D005F0D1
:10373000010070B96CB108E0641E20213046FFF72B
:1037400039FFF068002800DA02E00CB1A145F3D39C
:1037500000BFF068002836DB002F05DA7F422D21FC
:103760003046FFF727FF07E005F00400042803D1E7
:103770002B213046FFF71EFFF068002823DB05F001
:103780000200022814D105F0010088B9B8F1000F39
:103790000ED16CB108E0641E30213046FFF70AFFFD
:1037A000F068002800DA02E00CB1A145F3D300BFB5
:1037B000F068002807DB4346524639463046CDE9DB
:1037C0000045FFF719FFBDE8FC9F2DE9F04F99B0C8
:1037D00082460D46144603A8149040201590002000
:1037E0001690CDF860A0179000BF2E786D1C06B91A
:1037F000DDE0252E79D100274FF0010900BF2E789A
:10380000232E12D02B2E0CD02D2E02D0302E10D1E4
:1038100003E047F001076D1C0EE047F002076D1C46
:103820000AE047F004076D1C06E047F008076D1C2E
:1038300002E04FF0000900BF00BFB9F1000FDED178
:103840004FF0000800BF2E78302E01DB392E00DD4E
:1038500007E06D1CA6F1300008EB880100EB410881
:10386000F1E700BF002013902E782E2E12D16D1C90
:1038700000BF2E78302E01DB392E00DD09E06D1CF3
:10388000A6F13000139901EB810100EB4100139088
:10389000EFE700BF2E7800BF6C2E01D0682E02D15A
:1038A0006D1C2E7800E000E0F6E700BF702E5DD0C2
:1038B00008DC252E6AD0582E35D0632E09D0642E10
:1038C00069D113E0732E3CD0752E1DD0782E62D1B5
:1038D00028E02168081D2060D1F8009009F0FF0B56
:1038E000594614A8FFF766FE56E058E02168081D07
:1038F0002060D1F80090CDE900870A22494614A83B
:10390000139BFFF7ECFE47E02168081D2060D1F80B
:103910000090CDE900870A22494614A8139BFFF7BF
:103920006BFE39E000BF2168081D2060D1F80090CF
:10393000CDE900871022494614A8139BFFF75CFECF
:103940002AE02168081D2060D1F800B000BF9BF874
:1039500000600BF1010B06B906E0314614A8FFF731
:1039600029FE17980028F2DA00BF15E02168081D2B
:103970002060D1F80090002008210B461022CDE9EC
:103980000010494614A8FFF737FE05E0252114A8CA
:10399000FFF710FE00E000BF00BF6D1C03E03146E2
:1039A00014A8FFF707FE17980028BFF61EAF00BF48
:1039B000179800280ADD169820B103A95046169AD8
:1039C00000F0D9FADDE9161008441790179819B0DD
:1039D000BDE8F08F0FB438B5044606A800906A46DB
:1039E00020460599FFF7F1FE054600200090284685
:1039F00038BC5DF814FB0000CE58000810B5FD4C33
:103A0000032020616061FCA0A061FE49E1614FF4E8
:103A1000806121620021A1626162E162F6A02066FC
:103A2000F94961661021A16600212167E16661679D
:103A3000F6A1E01D01F054FEF5A1204601F050FE74
:103A40002020A07110BD2DE9F04704468946174695
:103A50004FF0000AE56800BFD4F81080A84503D9EC
:103A6000A8EB0500461E04E0A5EB0800401CA16879
:103A70000E1AA068401BB04201D9304601E0A06890
:103A8000401B0646BE4201D2304600E0384606469C
:103A9000616848193246494601F065FEB244B144B6
:103AA000BF1B3544A068A84200D10025E560002F67
:103AB000D2D15046BDE8F0872DE9F047044689464B
:103AC0001546E668A068871BAF4208D96168881967
:103AD0002A46494601F047FE7019E06010E0B846FA
:103AE000616888194246494601F03DFEA5EB07088A
:103AF00009EB07014246606801F035FEC4F80C800E
:103B0000BDE8F08738B505460C46FF208DF800006B
:103B1000C148005D8DF80100022269462846FFF782
:103B200092FF38BD10B501460A69CB689A4204D8A5
:103B30008C68641EE41AA01801E0D41A601E10BD3F
:103B40002DE9F74F8346174600BFAA48007808B909
:103B5000FFF754FF00BF0BEB4B01A648183000EBFA
:103B6000C106DDF804903569D6F80CA04FF00008C6
:103B7000554515D9B068441BBC4201D2204600E02F
:103B800038460446706841192246484601F0EBFD6C
:103B9000A044A1443F1B2544B068A84200D10025A1
:103BA000AAEB0504BC4201D2204600E03846044698
:103BB0004CB1706841192246484601F0D4FDA0443A
:103BC000A1443F1B2544B8F1000F00D035614046A9
:103BD000BDE8FE8F2DE9F74F8346174600BF8548A5
:103BE000007808B9FFF70AFF00BF0BEB4B018148D3
:103BF000603000EBC106DDF804903569D6F80CA002
:103C00004FF00008554515D9B068441BBC4201D29D
:103C1000204600E03846044670684119224648466E
:103C200001F0A1FDA044A1443F1B2544B068A84277
:103C300000D10025AAEB0504BC4201D2204600E0D9
:103C4000384604464CB1706841192246484601F096
:103C50008AFDA044A1443F1B2544B8F1000F00D0C9
:103C600035614046BDE8FE8F2DE9F04104460D4622
:103C70001646EFF311808046202080F3118800BFA4
:103C800000BF324629462046FFF75AFF074608F094
:103C9000FF0080F3118800BF00BF3846BDE8F08107
:103CA0002DE9F04104460D461646EFF3118080469B
:103CB000202080F3118800BF00BF324629462046ED
:103CC000FFF788FF074608F0FF0080F3118800BF68
:103CD00000BF3846BDE8F0812DE9F0470746884629
:103CE0001646C14607EB47014248183000EBC104B5
:103CF000D4E90301884202D1A068451E0EE0D4E950
:103D00000301884204D22069E168401A451E05E09B
:103D10002069E168401A401EA1684518AE420CD9DE
:103D20002069711B0844206103E02069A168401AE2
:103D300020612069A1688842F7D2D4E90201451ABE
:103D400000BFB5420AD9E268616888183246494620
:103D500001F009FDE0683044E0600EE0E26861686F
:103D600088182A46494601F0FEFCA9440020E0607C
:103D7000761BA068451E002EE3D100BFBDE8F0878A
:103D80002DE9F84F82468B461546CDF800B00AEB78
:103D90004A011848183000EBC104D4F81090E668C6
:103DA000B1453ED8A068801B471EAF420BD300BF71
:103DB000616888192A46009901F0D5FC7019E06005
:103DC0000120BDE8F88F4F44AF4230D3A068A0EB8C
:103DD0000608616888194246009901F0C4FCA5EB09
:103DE000080535B1009A02EB08012A46606801F027
:103DF000BAFC13E0F45100205465726D696E616C79
:103E0000000000009C5200209C5600205254540098
:103E1000534547474552000094000020E5600120CB
:103E2000CFE7A9EB0600471EAF4200D3C0E7002052
:103E3000C7E72DE9F047074688461646C24607EB16
:103E40004701F74800EBC109D9F8140020B1012857
:103E500011D0022826D11EE04846FFF763FE054632
:103E6000B54201D2002405E0344632465146484668
:103E7000FFF722FE18E04846FFF754FE0546B5421C
:103E800001D2284600E030460446224651464846C4
:103E9000FFF712FE08E0324651464846FFF7D3FDD1
:103EA000044601E0002400BF00BF2046BDE8F087C3
:103EB0002DE9F047074688461646C24607EB4701FC
:103EC000D748483800EBC109D9F8140020B10128BF
:103ED00011D0022826D11EE04846FFF723FE0546F2
:103EE000B54201D2002405E03446324651464846E8
:103EF000FFF7E2FD18E04846FFF714FE0546B5421D
:103F000001D2284600E03046044622465146484643
:103F1000FFF7D2FD08E0324651464846FFF793FDD1
:103F2000044601E0002400BF00BF2046BDE8F08742
:103F30002DE9F04104460D46164600BFB8486038EA
:103F4000007808B9FFF75AFD00BFEFF3118007466C
:103F5000202080F3118800BF00BF3246294620464A
:103F6000FFF767FF8046F8B280F3118800BF00BFFB
:103F70004046BDE8F0812DE9F04104460D46164665
:103F800000BFA7486038007808B9FFF737FD00BFC9
:103F9000EFF311800746202080F3118800BF00BF97
:103FA000324629462046FFF783FF8046F8B280F369
:103FB000118800BF00BF4046BDE8F08170B50546DE
:103FC0000C46204601F0B0FB064632462146284604
:103FD000FFF7D1FF70BD70B503460C4603EB4306F7
:103FE0008F4D483D05EBC601CD686A1C8D68954232
:103FF00000D100220D69954205D0CE684D68AC55C0
:10400000CA60012000E0002070BD2DE9F0410746A4
:10401000884600BF82486038007808B9FFF7EEFC98
:1040200000BFEFF311810846202181F3118800BF02
:1040300000BF07EB47027A49483901EBC204E16847
:104040004D1CA168A94200D100252169A94206D0D2
:10405000E268616801F80280E560012600E0002660
:10406000C1B281F3118800BF00BF3046BDE8F081C6
:104070002DE9F0410746884600BF6948603800785E
:1040800008B9FFF7BBFC00BFEFF311810846202100
:1040900081F3118800BF00BF07EB47026049483930
:1040A00001EBC204E1684D1CA168A94200D10025C2
:1040B0006169022903D100BF2169A942FCD02169AD
:1040C000A94206D0E268616801F80280E560012635
:1040D00000E00026C1B281F3118800BF00BF304666
:1040E000BDE8F08138B5012269460020FFF7D8FD10
:1040F0000446012C02D19DF8004001E04FF0FF344E
:10410000204638BD10B500BFFFF7ECFF0028FBDBF1
:1041100010BD70B500BF42486038007808B9FFF79D
:104120006DFC00BF3E486038056FC06EA84201D0EC
:10413000012400E00024204670BD10B5014601EBCB
:104140004104374800EBC402D3681069181A10BD47
:1041500010B5014601EB41043148483800EBC40278
:104160001369D068C01A10BD2DE9F04105460E460E
:104170001746984600BF2A486038007808B9FFF70C
:104180003DFC00BFEFF311810846202181F3118827
:1041900000BF00BF002400BF04EB4402204901EB34
:1041A000C201496801B905E0641C1D4960394969CB
:1041B000A142F1DC00BF1A4960394969A14224DDFE
:1041C00004EB4402164941F8325004EB440201EB7F
:1041D000C2014E6004EB4402114901EBC2018F6041
:1041E000002204EB44030E4901EBC3010A6104EB16
:1041F00044030B4901EBC301CA6004EB44020849C4
:1042000001EBC201C1F8148001E04FF0FF34C1B2EC
:1042100081F3118800BF00BF2046BDE8F081000097
:10422000545200202DE9F04105460E4617469846A7
:1042300000BFFE48007808B9FFF7E0FB00BFEFF3CE
:1042400011810846202181F3118800BF00BF00249E
:1042500000BF04EB4402F549183101EBC201496883
:1042600001B904E0641CF1490969A142F1DC00BF15
:10427000EE490969A14229DD04EB4402EB491831FA
:1042800041F8325004EB440201EBC2014E6004EBF2
:104290004402E649183101EBC2018F60002204EBB1
:1042A0004403E249183101EBC3010A6104EB440302
:1042B000DE49183101EBC301CA6004EB4402DB495B
:1042C000183101EBC201C1F8148001E04FF0FF3456
:1042D000C1B281F3118800BF00BF2046BDE8F08164
:1042E0002DE9F04704460E4617469846DDF8209023
:1042F00000BFCE48007808B9FFF780FB00BFCB486D
:104300000069A04239D9EFF311810846202181F3D9
:10431000118800BF00BF0CB304EB4402C34918313D
:1043200041F8326004EB440201EBC2014F6004EB40
:104330004402BE49183101EBC201C1F808800022D5
:1043400004EB4403B949183101EBC3010A6104EBE2
:104350004403B649183101EBC301CA6004EB4402BF
:10436000B249183101EBC201C1F81490C1B281F316
:10437000118800BF00BF002501E04FF0FF3528463F
:10438000BDE8F0872DE9F04704460E4617469846EB
:10439000DDF8209000BFA548007808B9FFF72EFB94
:1043A00000BFA2484069A04239D9EFF31181084605
:1043B000202181F3118800BF00BF0CB304EB44023D
:1043C0009A49603141F8326004EB440201EBC201CA
:1043D0004F6004EB44029549603101EBC201C1F822
:1043E0000880002204EB44039049603101EBC301D3
:1043F0000A6104EB44038D49603101EBC301CA60DB
:1044000004EB44028949603101EBC201C1F8149008
:10441000C1B281F3118800BF00BF002501E04FF059
:10442000FF352846BDE8F08770B504460E4600BF4C
:104430007E48007808B9FFF7E1FA00BF7B480069C1
:10444000A04214D9EFF311810846202181F311888D
:1044500000BF00BF04EB44027449183141F83260D8
:10446000C1B281F3118800BF00BF002501E04FF009
:10447000FF35284670BD70B504460E4600BF6B4838
:10448000007808B9FFF7BAFA00BF68484069A0424F
:1044900014D9EFF311810846202181F3118800BF60
:1044A00000BF04EB44026149603141F83260C1B29F
:1044B00081F3118800BF00BF002501E04FF0FF35F8
:1044C000284670BD70B504460E4600BF57480078B8
:1044D00008B9FFF793FA00BF54480069A04215D904
:1044E000EFF311810846202181F3118800BF00BF3E
:1044F00004EB44024D49183101EBC2014E61C1B2D7
:1045000081F3118800BF00BF002501E04FF0FF35A7
:10451000284670BD70B504460E4600BF434800787B
:1045200008B9FFF76BFA00BF40484069A04215D9AF
:10453000EFF311810846202181F3118800BF00BFED
:1045400004EB44023949603101EBC2014E61C1B252
:1045500081F3118800BF00BF002501E04FF0FF3557
:10456000284670BD10B5FFF749FA10BD2DE9F84394
:10457000044600BF2D48007808B9FFF73FFA00BF96
:104580000027FF208DF80000102C31D22848005D54
:104590008DF80100254D1835EFF31180804620205D
:1045A00080F3118800BF00BF287D00F003000228BF
:1045B00007D120480470022269462846FFF743FAD3
:1045C0000FE02846FFF7AEFA0646022E07D3194839
:1045D0000470022269462846FFF76EFA01E04FF0A8
:1045E000FF3708F0FF0080F3118800BF00BF01E033
:1045F0004FF0FF373846BDE8F8832DE9F04707460E
:10460000894600BF0948007808B9FFF7F7F900BFED
:10461000102F70DADFF8148008F11808484601F00E
:1046200083F80646EFF31180824605E0F45100203E
:1046300094000020A4000020202080F3118800BFF7
:1046400000BF4046FFF76EFA054698F8140000F0E8
:10465000030020B1012817D0022840D12FE0301DDF
:10466000854201D200240EE039464046FFF74AFA5F
:10467000324649464046FFF7E6F90446334801789A
:104680004046FFF73FFA2DE0042D02D24FF0FF34F1
:1046900014E039464046FFF735FA281FB04201D9E9
:1046A000304600E0281F024649464046FFF7CBF956
:1046B0000446264801784046FFF724FA12E03946BE
:1046C0004046FFF71FFA324649464046FFF7BBF91E
:1046D00004461E4801784046FFF714FA02E04FF006
:1046E000FF3400BF00BF0AF0FF0080F3118800BF55
:1046F00000BF02E0FFE74FF0FF342046BDE8F0873F
:1047000010B5044604EB4402114901EBC200FFF767
:1047100009FA10BD30B5014601EB41050C4C04EB24
:10472000C504226901EB4105094C04EBC504E368AB
:104730009A4201D8981A07E001EB4105044C04EBBA
:10474000C504A4689D1A601B30BD0000A4000020B1
:104750000C52002070B505460C46164625B1012DB9
:1047600037D0022D78D169E064B900224FF400619E
:10477000FD48FCF7BAFB00224FF48061FA48FCF7D1
:10478000B4FB25E0012C0AD10122D102F648FCF746
:10479000ACFB0022A102F448FCF7A7FB18E0022CB6
:1047A0000AD10022A102F048FCF79FFB01229102EE
:1047B000ED48FCF79AFB0BE0032C09D10122D10252
:1047C000E948FCF792FB01229102E748FCF78DFBD8
:1047D0006BE064B900224FF40071E348FCF785FBFD
:1047E00000224FF48071E048FCF77FFB25E0012CAC
:1047F0000AD101225102DC48FCF777FB002221029A
:10480000D948FCF772FB18E0022C0AD100222102E1
:10481000D548FCF76AFB01221102D348FCF765FB7F
:104820000BE0032C09D101225102CF48FCF75DFBBC
:1048300001221102CC48FCF758FB36E06CB900228B
:104840004FF40071C948FCF750FB00224FF480710F
:10485000C648FCF74AFB26E026E0012C0AD10122DB
:104860005102C248FCF741FB00222102BF48FCF77D
:104870003CFB18E0022C0AD100222102BB48FCF7C5
:1048800034FB01221102B948FCF72FFB0BE0032C8B
:1048900009D101225102B548FCF727FB0122110280
:1048A000B248FCF722FB00E000BF00BF70BDFEB5C0
:1048B00004460D460026092C12D006DC062C09D031
:1048C000072C09D0082C12D108E00A2C0AD0172C8A
:1048D0000DD109E001260BE0022609E0042607E0DD
:1048E000082605E0102603E04FF4487600E000BFFC
:1048F00000BF019600208DF8080010208DF80900F7
:104900008DF80A5001A8FBF781FEE0B28DF8000097
:1049100007208DF8010000208DF802008DF803506B
:104920006846FBF7FCFDFEBD38B50446002000904C
:104930008DF8004000231A4669468D480068FCF750
:10494000BAFE38BD8B48007870471FB5012104209E
:10495000FCF7D6FC4FF47060ADF80C0010208DF819
:104960000F0003208DF80E0003A97F48FCF70CFA16
:104970004FF470617C48FCF7B6FA01211020FCF777
:10498000BFFC4FF44070ADF80C0010208DF80F0004
:1049900003208DF80E0003A97448FCF7F5F94FF4D5
:1049A00040717248FCF79FFA01211020FCF7A8FC27
:1049B00001210846FCF7A4FC3F20ADF80C0048207C
:1049C0008DF80F0002208DF80E0003A96748FCF750
:1049D000DBF93F216548FCF784FA00210220FCF74F
:1049E000E9FA01210220FCF7E5FA02210846FCF76A
:1049F000E1FA03210220FCF7DDFA04210220FCF792
:104A0000D9FA05210220FCF7D5FA01210820FCF78C
:104A100077FC01210846FCF773FC4FF44070ADF8B9
:104A20000C0048208DF80F0002208DF80E0003A91D
:104A30005148FCF7A9F94FF440714F48FCF751FA7F
:104A400009210120FCF7B6FA08210120FCF7B2FA8F
:104A500040F23F30019000208DF808000C208DF8C6
:104A6000090001208DF80A0001A8FBF7CFFD062000
:104A70008DF8000007208DF8010000208DF802005D
:104A800001208DF803006846FBF749FD07208DF8EB
:104A900000008DF8010000208DF8020001208DF843
:104AA00003006846FBF73BFD08208DF80000072057
:104AB0008DF8010000208DF8020001208DF8030020
:104AC0006846FBF72CFD09208DF8000007208DF8C3
:104AD000010000208DF8020001208DF803006846D7
:104AE000FBF71DFD0A208DF8000007208DF801005E
:104AF00000208DF8020001208DF803006846FBF7C6
:104B00000EFD17208DF8000007208DF80100002011
:104B10008DF8020001208DF803006846FBF7FFFCCA
:104B200001210820FCF7ECFB01210846FCF7E8FB1B
:104B300001211248FCF7F9F90820ADF80C0010200B
:104B40008DF80F0003208DF80E0003A90A48FCF72A
:104B50001BF908210848FCF7C6F9094A09A10020F9
:104B6000FEF738FF1FBD00000008014000100140A3
:104B7000AC000020B0000020000C0140000230001A
:104B8000E058000825733A2062737020696E6974DA
:104B90000A0000001CB50120FBF79EFD10B3F94A86
:104BA000F9A10020FEF716FF00210620FFF77FFE87
:104BB000F848006801900020009000236A4601A98F
:104BC000F5480068FCF730FE009838B14FF080508F
:104BD000F2490860BFF34F8FBFF36F8F0120FBF7DF
:104BE0008CFD00BF1CBD1CB50220FBF775FD18B382
:104BF000EB4AECA10020FEF7EDFE00210720FFF7B5
:104C000056FEE44814300068019000200090002314
:104C10006A4601A9E0480068FCF706FE009838B132
:104C20004FF08050DD490860BFF34F8FBFF36F8FA7
:104C30000220FBF762FD00BF1CBD1CB50420FBF782
:104C40004BFD18B3DA4ADBA10020FEF7C3FE0021BA
:104C50000820FFF72CFECF48283000680190002084
:104C6000009000236A4601A9CB480068FCF7DCFDF0
:104C7000009838B14FF08050C8490860BFF34F8F9B
:104C8000BFF36F8F0420FBF738FD00BF1CBD1CB5C0
:104C90000820FBF721FD18B3C94ACAA10020FEF77E
:104CA00099FE00210920FFF702FEBA483C30006857
:104CB00001900020009000236A4601A9B6480068D0
:104CC000FCF7B2FD009838B14FF08050B34908604E
:104CD000BFF34F8FBFF36F8F0820FBF70EFD00BFB0
:104CE0001CBD1CB51020FBF7F7FC18B3B84AB9A1DE
:104CF0000020FEF76FFE00210A20FFF7D8FDA5482F
:104D00005030006801900020009000236A4601A9FD
:104D1000A1480068FCF788FD009838B14FF080503A
:104D20009E490860BFF34F8FBFF36F8F1020FBF7D2
:104D3000E4FC00BF1CBD1CB52020FBF7CDFC18B364
:104D4000A74AA8A10020FEF745FE00211720FFF783
:104D5000AEFD90486830006801900020009000236C
:104D60006A4601A98C480068FCF75EFD009838B1DE
:104D70004FF0805089490860BFF34F8FBFF36F8FAA
:104D80002020FBF7BAFC53E04FF48070FBF7A4FC43
:104D900020B3934A96A10020FEF71CFE00211720A5
:104DA000FFF785FD7B486C30006801900020009083
:104DB00000236A4601A978480068FCF735FD009891
:104DC00038B14FF0805075490860BFF34F8FBFF383
:104DD0006F8F4FF48070FBF790FC29E04FF4007068
:104DE000FBF77AFC20B37E4A86A10020FEF7F2FD95
:104DF00000211720FFF75BFD6648703000680190C6
:104E00000020009000236A4601A963480068FCF76F
:104E10000BFD009838B14FF0805060490860BFF337
:104E20004F8FBFF36F8F4FF40070FBF766FC00BF2E
:104E30001CBD08B500200090BFE100235A1E694642
:104E400055480068FCF7AAFD0128F5D19DF80050EF
:104E5000FFF778FD08B1012000E00020044614208F
:104E6000FDF71FFA092D7DD2DFE805F0050B284577
:104E700081628B8A8900684A68A10020FEF7AAFD3A
:104E800099E102216A48FCF712F808B969A000E02C
:104E90006AA006463346604A69A10020FEF79AFDE3
:104EA00001210720FFF703FD3CB102216048FBF719
:104EB000FEFF10B90820FFF737FD7CE101215C48B7
:104EC000FBF7F5FF08B95BA000E05CA0064633469F
:104ED000514A5EA10020FEF77DFD01210620FFF76B
:104EE000E6FC3CB101215248FBF7E1FF10B9032079
:104EF000FFF71AFD5FE108214D48FBF7D8FF08B91D
:104F00004CA000E04DA006463346434A52A1002083
:104F1000FEF760FD01210920FFF7C9FC3CB1082123
:104F20004348FBF7C4FF10B90720FFF7FDFC42E13F
:104F300020213F48FBF7BBFF08B93EA000E03FA09F
:104F400006463346344A47A10020FEF743FD0121BF
:104F50001720FFF7ACFC4CB120213548FBF7A7FF29
:104F600020B900E026E10720FFF7DEFC23E1042161
:104F70002F48FBF79CFF08B92EA07BE078E0E3E028
:104F8000ACE08CE0E958000825733A203232323226
:104F9000320A0000FC580008A800002004ED00E0E0
:104FA000FE58000825733A2031313131310A0000B2
:104FB0001259000825733A2034343434340A00007E
:104FC0002659000825733A2033333333330A00005F
:104FD0003A59000825733A2036363636360A00002C
:104FE0004E59000825733A2035353535350A00000D
:104FF00025733A20627574746F6E207265766572DF
:1050000073650A0025733A20627574746F6E2066AA
:105010006F72776172640A007A59000825733A202A
:1050200053575F53544154455F4E554C4C0A000052
:1050300000100140646F776E000000007570000082
:1050400025733A207377312025730A0025733A209F
:105050007377322025730A0025733A207377332043
:1050600025730A0025733A207377352025730A00CB
:10507000AFF2380006463346F74AF8A10020FEF7A3
:10508000A9FC01210820FFF712FC3CB10421F648DD
:10509000FBF70DFF10B90420FFF746FC8BE0102151
:1050A000F148FBF704FF10B9AFF2780001E0AFF26E
:1050B000740006463346E84AECA10020FEF78AFC5D
:1050C00001210A20FFF7F3FB3CB11021E648FBF772
:1050D000EEFE10B90420FFF727FC6CE04FF40071DE
:1050E000E548FBF7E4FE10B9AFF2B80001E0AFF21B
:1050F000B40006463346D84AE0A10020FEF76AFC19
:1051000001211720FFF7D3FB4FF40071DA48FBF7BA
:10511000CEFE58B9DF480078012803DBDD4800786F
:10512000042810DD0120FFF7FFFB0CE04FF4807135
:10513000D148FBF7BCFE012805D1D648007810B154
:105140000020FFF7F1FB36E04FF48071CA48FBF70F
:10515000AEFE10B9AFF2241001E0AFF22010064607
:105160003346BD4ACCA10020FEF734FC01211720B4
:10517000FFF79DFB4FF48071BF48FBF798FE58B9CD
:10518000C4480078052803DBC2480078082810DDF1
:105190000520FFF7C9FB0CE04FF40071B648FBF7A0
:1051A00086FE012805D1BB48007810B10020FFF72A
:1051B000BBFB00E000BF00BF00BF3EE608B500201B
:1051C000009035E100235A1E6946B9480068FCF793
:1051D000E5FB0128F5D19DF80000AE4908700846AE
:1051E0000078092879D2DFE800F0051A3A54799856
:1051F000B8D7FD00AF4AB0A10020FEF7EBFB0022BC
:1052000011461046FFF7A6FA002211460120FFF7CB
:10521000A1FA002211460220FFF79CFA07E1A54AF5
:10522000AAA10020FEF7D6FB01218F48FBF73FFE25
:1052300018B10220FFF778FB10E004218A48FBF741
:1052400036FE20B910218848FBF731FE18B1032043
:10525000FFF76AFB02E00420FFF766FBE7E0954AF0
:105260009FA10020FEF7B6FB01217F48FBF71FFE40
:1052700070B1FF2201210020FFF76CFA00221146D5
:105280000120FFF767FA002211460220FFF762FAB9
:10529000CDE0884A97A10020FEF79CFB01217248CF
:1052A000FBF705FEC0B9002211461046FFF752FA7F
:1052B00004216D48FBF7FBFD20B1FF2201210846C8
:1052C000FFF748FA10216848FBF7F1FD20B1FF22F3
:1052D00001210220FFF73EFAA9E0A7E0754A89A163
:1052E0000020FEF777FB002211461046FFF732FA46
:1052F00004215D48FBF7DBFD20B9002211460120A7
:10530000FFF728FA10215848FBF7D1FD20B90022F9
:1053100011460220FFF71EFA89E0664A7EA10020AE
:10532000FEF758FB08215048FBF7C1FD20B92021AA
:105330004D48FBF7BCFD18B10620FFF7F5FA0BE06E
:1053400002214948FBF7B3FD18B10720FFF7ECFA3B
:1053500002E00820FFF7E8FA69E0564A73A100204E
:10536000FEF738FB002211461046FFF7F3F908213B
:105370003D48FBF79CFD20B1FF2202210120FFF7F1
:10538000E9F920213848FBF792FD20B1FF220221E4
:105390000846FFF7DFF94AE0464A69A10020FEF718
:1053A00019FB08213048FBF782FD70B920212E48F7
:1053B000FBF77DFD48B902212B48FBF778FD20B1B2
:1053C000FF2202210020FFF7C5F908212648FBF73C
:1053D0006EFD20B9002211460120FFF7BBF9202104
:1053E000214800E008E0FBF762FD20B900221146E9
:1053F0000220FFF7AFF91AE02E4A57A10020FEF76E
:10540000E9FA02211848FBF752FD70B90022114653
:105410001046FFF79FF9002211460120FFF79AF985
:10542000002211460220FFF795F900E000BF00BFFF
:10543000C8E610E0012208210F48FBF756FD642062
:10544000FCF72FFF002208210B48FBF74EFD4FF41D
:105450006170FCF726FFEDE77A59000825733A20C2
:105460007377342025730A000010014025733A2019
:105470007377362025730A00000C014025733A200B
:10548000627574746F6E20666F7277617264202526
:10549000730A0000B000002025733A20627574740E
:1054A0006F6E20726576657273652025730A000041
:1054B000AC0000206E59000825733A2057494E442D
:1054C0004F575F53544F500A0000000025733A2095
:1054D00057494E444F575F4F50454E0A0000000059
:1054E00025733A2057494E444F575F464F52574114
:1054F00052440A0025733A2057494E444F575F558E
:10550000500A000025733A2057494E444F575F4FC9
:1055100050454E45440A000025733A2057494E44F1
:105520004F575F434C4F53450A00000025733A2004
:1055300057494E444F575F444F574E0A00000000F2
:1055400025733A2057494E444F575F4241434B57CA
:105550004152440A0000000025733A2057494E4446
:105560004F575F434C4F5345440A00001CB5FFF7AB
:10557000ECF90020032103468022CDE9001025A18B
:105580002748FCF770FC18B926A10020FEF722FA84
:10559000002202210520FBF7B3FF284908600846D6
:1055A000006818B926A10020FEF714FA0020032194
:1055B00003468022CDE9001028A12B48FCF753FCBC
:1055C00018B92AA10020FEF705FA002202210520C1
:1055D000FBF796FF2C4908600846006818B92BA114
:1055E0000020FEF7F7F90020052103468022CDE9CF
:1055F00000102CA12D48FCF736FC18B92CA1002076
:10560000FEF7E8F90020FFF78FF930A10020FEF740
:10561000E1F91CBD44454D4F5F5441534B00000020
:10562000335400086372656174652064656D6F5F53
:105630007461736B206572726F720A00AC00002097
:105640006372656174652071756575655F6D6F74F2
:105650006F72206572726F720A0000004D4F544FD6
:10566000525F5441534B0000BD51000863726561A5
:1056700074652077696E646F775F7461736B206502
:1056800072726F720A000000A800002063726561E8
:1056900074652071756575655F7377206572726FCB
:1056A000720A000053575F5441534B00334E0008B9
:1056B000637265617465207377697463685F746190
:1056C000736B206572726F720000000064656D6F0D
:1056D000207461736B20696E6974200A00000000F9
:1056E00040EA0103024630B59B0710D14FF0013468
:1056F00000E008C208C91D1B9D4315EAC41FF8D06D
:1057000013F0FF0102F8011B0DD01B0AF8E711F896
:10571000013B002B02F8013B05D011F8013B002BA7
:1057200002F8013BF3D130BD10B5431C02E010F884
:10573000011B71B18107FAD14FF0013202C88C1AF6
:105740008C4314EAC211F9D0C01A0A0603D0C01E55
:1057500010BDC01A10BD0A0401D0801E10BD090280
:10576000FCD0401E10BD032A40F2308010F0030C24
:1057700000F0158011F8013BBCF1020F624498BFA4
:1057800011F801CB00F8013B38BF11F8013BA2F141
:10579000040298BF00F801CB38BF00F8013B11F0BC
:1057A000030300F02880083AC0F0088051F8043B59
:1057B000083A51F804CBA0E80810F5E7121D5CBFC9
:1057C00051F8043B40F8043BAFF30080D20724BFFC
:1057D00011F8013B11F801CB48BF11F8012B24BF90
:1057E00000F8013B00F801CB48BF00F8012B7047DF
:1057F00070477047704710B5203AC0F00B80B1E891
:105800001850203AA0E81850B1E81850A0E81850F5
:10581000BFF4F5AF5FEA027C24BFB1E81850A0E8FE
:10582000185044BF18C918C0BDE810405FEA827C18
:1058300024BF51F8043B40F8043B08BF7047D2072F
:1058400028BF31F8023B48BF11F8012B28BF20F8D0
:10585000023B48BF00F8012B7047754600F02CF85A
:10586000AE4605006946534620F00700854618B04D
:1058700020B5FAF73DFEBDE820404FF000064FF09E
:1058800000074FF000084FF0000B21F00701AC4675
:10589000ACE8C009ACE8C009ACE8C009ACE8C00994
:1058A0008D46704710B50446AFF300802046BDE832
:1058B0001040FAF784BC000000487047AC56002046
:1058C00001491820ABBEFEE72600020070473031C8
:1058D0003233343536373839414243444546000087
:1058E0006273705F696E69740045585449305F494E
:1058F000525148616E646C657200000002004558A8
:105900005449315F49525148616E646C65720000C0
:10591000010045585449325F49525148616E646CE8
:1059200065720000040045585449335F495251489C
:10593000616E646C65720000030045585449345F21
:1059400049525148616E646C65720000060045580A
:105950005449395F355F49525148616E646C6572D4
:105960000000000005000000080000000700776943
:105970006E646F775F7461736B00737769746368CB
:105980005F7461736B000000A859000800000020DC
:10599000B40000006C0100085C5A0008B40000204C
:1059A0005C5C00008801000800127A000000000022
:1059B00000000000010203040607080900000000BF
:1059C0000102030401020304060708090204060891
:1059D00000000000000000000000000000000000C7
:1059E00000000000000000000000000000000000B7
:1059F00000000000000000000000000000000000A7
:105A00000000000000000000000000000000000096
:105A10000000000000000000000000000000000086
:105A20000000000000000000000000000000000076
:105A30000000000000000000AAAAAAAA30313233F8
:105A4000343536373839414243444546000000007A
:0C5A50000000000000000000000000004A
:0400000508000131BD
:00000001FF
